:020000040800F2
:10000000B0150020D901000803410008752F000831
:10001000014100081F080008D75F00080000000029
:10002000000000000000000000000000E948000897
:100030007D090008000000000B4600086549000823
:10004000F3010008F3010008F3010008F3010008C0
:10005000F3010008F3010008F3010008F3010008B0
:10006000F3010008F3010008F3010008610800082B
:10007000F3010008F3010008F3010008F301000890
:10008000F3010008F3010008F3010008555F0008C0
:10009000615F0008F3010008F3010008F3010008A4
:1000A000F3010008F3010008F3010008F301000860
:1000B000F3010008F3010008F3010008F301000850
:1000C000F3010008852F0008792F0008F3010008CC
:1000D000F3010008F3010008F3010008F301000830
:1000E000F3010008F3010008F301000800F002F832
:1000F00000F062F80AA090E8000C82448344AAF160
:100100000107DA4501D100F057F8AFF2090EBAE85D
:100110000F0013F0010F18BFFB1A43F0010318473B
:10012000EC7500000C7600000A444FF0000C10F84B
:10013000013B13F0070408BF10F8014B1D1108BF65
:1001400010F8015B641E05D010F8016B641E01F805
:10015000016BF9D113F0080F1EBF10F8014BAD1C55
:100160000C1B09D16D1E58BF01F801CBFAD505E073
:1001700014F8016B01F8016B6D1EF9D59142D6D3CD
:10018000704700000023002400250026103A28BFF5
:1001900078C1FBD8520728BF30C148BF0B607047F9
:1001A000642900F09D80732900F02D8200207047A3
:1001B0001FB51FBD10B510BD00F04BFA1146FFF77B
:1001C000F7FF05F021FF00F069FA03B4FFF7F2FF33
:1001D00003BC00F071FA0000094880470948004755
:1001E000FEE7FEE7FEE7FEE7FEE7FEE7FEE7FEE7E7
:1001F000FEE7FEE704480549054A064B7047000044
:10020000E5490008ED000008B00F0020B0150020FF
:10021000B0110020B01100200FB41CB5074B06AA86
:100220007B4469460090059800F0C3F900206946B8
:1002300000F0D2F91CBC5DF814FB0000B50300000F
:1002400070B5044685690068C10601D5302600E016
:100250002026C00707D070BDD4E901213046904761
:10026000206A401C20626D1EF6D570BD70B5044634
:1002700085690078C00707D170BDD4E9012120202D
:100280009047206A401C20626D1EF6D570BD70B587
:100290000C460546012A05D02878800600D5EA6973
:1002A000002302E0012305E05B1C934202D2E05CE4
:1002B0000028F9D1A869E618C01AA861286A18446C
:1002C00028622846FFF7BCFF04E0D5E9012114F8B5
:1002D000010B9047B442F8D32846FFF7C7FF70BD23
:1002E0002DE9F0410646002410687529314616A50F
:1002F00010D0AFF30080002802DA404213A507E0D7
:1003000031688A0701D512A502E0490704D511A575
:10031000012401E0AFF3008000210A2206F1240746
:1003200009E0B0FBF2FCB0FBF2F302FB1C00303042
:1003300078541846491C0028F3D123462A463046F3
:10034000BDE8F04100F0D6B8000000002D0000002C
:100350002B000000200000002DE9F05F89460446D4
:100360004FF0000ADFF824B1FB44C0F820A020467B
:10037000E168884700287DD0252806D0D4E90121EE
:100380009047206A401C2062F1E700255F46204626
:10039000E16888472028064607DB312E05D2B819C8
:1003A00010F8200C08B10543F1E7A80701D525F0A6
:1003B0000405C4F81CA00027C4F818A02A2E09D0F0
:1003C000304605F019FE38B304EB8708303EC8F814
:1003D000186019E059F8041B204604EB870291616C
:1003E000E1688847012F064618D1E069002820DA25
:1003F00025F020051DE0D8F8180000EB800006EB82
:1004000040003038C8F818002046E16888470646A2
:1004100005F0F2FD0028EED1012F0AD02E2E08D1D2
:100420002046E16888477F1C0646022F45F02005DC
:10043000C4DBA069002803DA404245F00105A06151
:10044000E80701D025F01005A6B1A6F14100192852
:1004500002D8203645F400654A46314620462560DC
:100460004D46FFF79DFE60B1012807D0ED1D25F038
:10047000070000E007E000F1080978E705F104094A
:1004800075E730467AE7206ABDE8F09F8E7300007A
:1004900002F0FF0343EA032242EA024200F0B9B845
:1004A0004FF0000200B5134694469646203922BF0D
:1004B000A0E80C50A0E80C50B1F12001BFF4F7AF58
:1004C000090728BFA0E80C5048BF0CC05DF804EB3A
:1004D000890028BF40F8042B08BF704748BF20F8A8
:1004E000022B11F0804F18BF00F8012B70477047A6
:1004F000704770472DE9F0470D46994692460446ED
:1005000000F124080168880604D5E06921F0100193
:10051000216000E00120A84201DD471B00E0002728
:10052000A1697A1902EB0900081AA0612078C006B7
:1005300002D42046FFF784FE002608E0D4E901211A
:100540001AF806009047206A401C761C20624E452F
:10055000F4DB2078C0060AD52046FFF771FE06E0DE
:10056000D4E9012130209047206A401C2062381EC7
:10057000A7F10107F4DC07E0D4E9012118F8050030
:100580009047206A401C2062281EA5F10105F3DC7B
:100590002046FFF76BFE2078000602D50220BDE85A
:1005A000F0870120FBE7000001694A1C026108781E
:1005B000704700B58FB0CDE90131002105910549A3
:1005C0007944CDE9031011466846FFF7C5FE0FB028
:1005D00000BD0000E5FFFFFF0A6802F8010B0A609A
:1005E000704710B5436913B1AFF3008001E0FFF726
:1005F0004EFE012010BD127800F124010A70002285
:100600004A700122EDE711684FF0FF32E9E74FF041
:1006100000020429C0F0128010F0030C3FF442AF36
:10062000CCF1040CBCF1020F18BF00F8012BA8BFDD
:1006300020F8022BA1EB0C01FFF734BF5FEAC17C6D
:1006400024BF00F8012B00F8012B48BF00F8012B54
:100650007047754600F02CF8AE46050069465346D3
:1006600020F00700854618B020B5FFF7C3FDBDE8B0
:1006700020404FF000064FF000074FF000084FF009
:10068000000B21F00701AC46ACE8C009ACE8C0099A
:10069000ACE8C009ACE8C0098D46704710B5044607
:1006A000AFF300802046BDE81040FFF78EBD00008C
:1006B00000487047500F002001491820ABBEFEE7EC
:1006C000260002007047000070B50446006881688B
:1006D000C943C90717D1816821F00101816000F089
:1006E00005FE05460AE000BF00F000FE401B0228A0
:1006F00004D920688068C043C00706D0206880689D
:10070000C043C007F0D0002070BDA06A40F01000C8
:10071000A062E06A40F00100E062012070BD10B507
:100720000146406A826A12F0500F05D0006A026BDF
:10073000BDE8104008461047816A41F400718162AB
:1007400001688968C1F3424107290CD1017B51B985
:10075000816A21F480718162816AC90403D4816A4B
:1007600041F00101816200F0F7F910BD10B5406A57
:10077000816A41F040018162C16A41F00401C162B5
:1007800000F0ECF910BD10B5406A00F0E6F910BDBC
:10079000F8B500260446009600688168C943C90779
:1007A0002DD0816841F0010181601648164900682A
:1007B000B0FBF1F000E0401E00900028FBD100F0FB
:1007C00095FD054616E000BF00F090FD401B022895
:1007D00010D920688068C043C0070BD0A06A40F0E1
:1007E0001000A062E06A40F00100E06284F824603A
:1007F0000120F8BD20688068C043C007E4D1002014
:10080000F8BD00003400002040420F0000F00F014E
:10081000000900EB800001EB4000C0B27047FEE72A
:100820000D4910B50B880D490020CA8812B10B8103
:10083000C88010BD0A89934205D99C1A502C02DD4C
:100840000120503206E09342F3D2D31A502BF0DD50
:100850000220503A0A8110BDF4020020000000205E
:10086000014800F027BB00005C03002030B590F881
:1008700040500124AC40C56B6C6004686360436801
:10088000102B036803D099600068C26030BD9A6085
:100890000068C16030BD0000014908607047000079
:1008A0005000002090F904108AB290F9051090F9D8
:1008B00006008BB200F5FA6080B2032B03D201462A
:1008C000401E80B200E0811E1144C3EBC30202EB64
:1008D00003120923B2FBF3F289B211446422B0FB84
:1008E000F2F201EB9001891A4FF4C872B0FBF2F0FA
:1008F00008440721001D90FBF1F201FB1200C0B279
:10090000704700007FB504461B4E002064258DF81B
:100910000C000095012303AAD021306801F010F9E2
:100920000095072301AAD021306800F0E1FF9DF86F
:100930000400FFF76BFF20709DF80500FFF766FFCE
:1009400060709DF80600FFF761FFA0709DF807003A
:10095000FFF75CFFE0709DF80800FFF757FF20717C
:100960009DF80900FFF752FF60719DF80A00FFF73C
:100970004DFFA0717FBD000050000020704772B68F
:10098000FEE70000F8B500250446009590F8240025
:1009900001280BD0012084F824002046FFF794FEA4
:1009A0002046FFF7F5FE060002D050E00220F8BD19
:1009B000A06A20F4885040F00200A062022001F0FA
:1009C000F1FE25490968B1FBF0F0400000E0401E4F
:1009D00000900028FBD12068816841F00801816007
:1009E00000F084FC074608E000F080FCC01B0A28E9
:1009F00003D920688068000715D420688068000744
:100A0000F2D42068816841F00401816000F06EFC3E
:100A1000074612E000F06AFCC01B0A280DD92068C6
:100A20008068400709D5A06A20F0020040F010005D
:100A3000A06284F824500120F8BD20688068400737
:100A4000E8D4A06A20F0020040F00100A06284F81F
:100A500024503046F8BD000034000020F8B50024D2
:100A6000009490F824202546012A12D0012280F813
:100A700024204A681F23072A0DD20668776B521E6E
:100A800002EB820293409F430B6893401F437763BE
:100A900019E00220F8BD06680D2A0AD2376BD21F72
:100AA00002EB820293409F430B6893401F433763DE
:100AB00009E0F76A0D3A02EB820293409F430B680C
:100AC00093401F43F7620A68072306680A2A0AD37D
:100AD000F7680A3A02EB420293409F438B689340C7
:100AE0001F43F76008E0376902EB420293409F43DF
:100AF0008B6893401F4337610A68102A01D0112A7E
:100B000020D1124B02689A4217D193681B0219D464
:100B1000936843F4000393600968102912D10C49CB
:100B20000C4A0968B1FBF2F101EB8101490000E0D8
:100B3000491E00910029FBD104E0816A41F02001A7
:100B40008162012480F824502046F8BD0024014031
:100B50003400002040420F0070477047704700008B
:100B60002DE9F0414FF0000704003D467ED0A06A19
:100B7000002628B9E66284F82460204600F07EF85A
:100B80002046FFF7A1FDA16AC90600D420B1A06AE2
:100B900040F01000A06269E0A16A21F4885141F0A0
:100BA0000201A1626268E169237B0A4347EA4301CB
:100BB0000A43A1684FF48077B94209D0012907D0D0
:100BC0005FF0000194F814C0BCF1010F02D00AE0FC
:100BD0003946F7E7F3B1A36A43F02003A362E36A5F
:100BE00043F00103E3622368D3F804C02CF4694C9A
:100BF0004CEA010CC3F804C021688B68DFF870C0B0
:100C000003EA0C0313438B60A168B9420BD001299E
:100C100009D00CE0DFF85CC0A3690CEB43330B4355
:100C200043F40061DFE7218A0D05A5F580152168F1
:100C3000CB6A23F470032B43CB62216889680E4B87
:100C40001940914208D1E662A16A21F0020141F007
:100C50000101A162BDE8F081A06A20F0020040F02D
:100C60001000A062E06A40F00100E0620120F1E7BC
:100C7000FDF7E1FF00E0FFFFFE0E1FFF70B586B03D
:100C800000250646009501950295039500681949CF
:100C900088422DD11849886940F4007088618869BC
:100CA00000F400700490886940F00400886188694D
:100CB000694600F004000490802000900320019019
:100CC0000E4800F019FA0F4C0D48C4E900058015D4
:100CD000A560C4E90350800060612020C4E90605D6
:100CE000204600F091F908B1FFF749FE34626662D0
:100CF00006B070BD00240140001002400008014011
:100D0000080002405C0300202DE9F04789460446B4
:100D10003B4900683B4F0E1D9046884201D0B842C7
:100D200007D1306810F4702F03D001252846BDE8A4
:100D3000F08794F8240001280CD0012084F82400C6
:100D40002046FFF725FD05004FF0000004D084F891
:100D50002400EBE70220EAE7A16A40F60162914332
:100D600041F48071A1622168B94218D1326812F44D
:100D7000702F14D0A16A41F48011A1623168490535
:100D800005D5A16A21F4005141F48051A162A16A04
:100D9000C9040AD5E16A21F00601E16206E0A26A0F
:100DA00022F48012A2624968E9E7E06284F8240034
:100DB000216A15488862216A1448C862216A144869
:100DC000086321686FF0020008602068816841F4C0
:100DD00080718160216843464A464C31206A00F0A8
:100DE00041F920688168C1F342410729816803D035
:100DF00041F48011816099E741F4A001FAE7000015
:100E000000240140002801401F0700088707000850
:100E10006D07000810B590F821100024022903D0B6
:100E20000421816301243DE001680A6822F00E027A
:100E30000A6001680A6822F001020A601A4A016821
:100E4000914201D1012121E0174A1432914201D18E
:100E500010211BE0144A2832914201D1891515E076
:100E6000114A3C32914201D189140FE00E4A5032AE
:100E7000914202D14FF4803108E00B4A6432914232
:100E800002D14FF4801101E04FF08071064A083A18
:100E90005160012180F82110002180F82010416B61
:100EA00001B18847204610BD0800024090F821009B
:100EB000704700002DE9F05FC16B0C6801680B689A
:100EC000D0F840C0042202FA0CF2494DDFF824A108
:100ED000494E4A4FDFF828B1DFF828E122422CD0F2
:100EE0005A072AD50A68920603D40A6822F0040237
:100EF0000A600168A94201D1042219E0514501D1DB
:100F0000402215E0B14202D14FF4806210E0B942B4
:100F100002D14FF480420BE0594502D14FF48022B8
:100F200006E0714502D14FF4800201E04FF080628B
:100F30002F4908394A60C16A3BE04FF0020808FABD
:100F40000CF818EA040F4FF000094FF0010235D0F9
:100F50005FEA837832D50B689B0605D40B6823F0D3
:100F60000A030B6080F821200168A94201D1022206
:100F700019E0514501D1202215E0B14202D14FF4D0
:100F8000007210E0B94202D14FF400520BE0594513
:100F900002D14FF4003206E0714502D14FF4001245
:100FA00001E04FF00072124908394A6080F8209041
:100FB000816A00291AD0BDE8F05F0847082505FAC4
:100FC0000CF5254212D01B0710D50B6823F00E0339
:100FD0000B6090F84010C36B02FA01F15960826314
:100FE00080F8212080F82090016BE2E7BDE8F09FB7
:100FF000080002401C000240300002404400024051
:10100000580002406C00024030B528B308C81349AC
:1010100014221944B1FBF2F18900C16310498163C4
:10102000022141771A6843F6F0718A43D0E900142F
:101030002143D0E902452C432143046921434469FB
:101040002143846921431143196000214163012236
:1010500042770177084630BD012030BDF8FFFDBF63
:101060000000024070B5044690F8200000250128D9
:101070000CD0012084F8200094F821600020012E7B
:1010800006D084F820000225284670BD022070BDDD
:10109000022684F82160A0632068066826F0010615
:1010A00006602046FFF7E2FBE06A0028206801683E
:1010B00002D041F00E0106E021F004010160206839
:1010C000016841F00A0101602068016841F00101F6
:1010D0000160D9E770B5044600F008F90546601CC8
:1010E00002D004480078044400F000F9401BA042FC
:1010F000FAD370BD280000202DE9F84FDFF8B89131
:101100000024A9F1040B23460F2709F1040AABF1CF
:10111000040EC9E00125A5402A40AA427DD1674EB0
:10112000D1F804C0ACEB0608B44532D014DCBCF1F5
:10113000030F3AD009DCBCF1000F2AD0BCF1010F3B
:101140001CD0BCF1020F31D11DE0BCF1110F17D042
:10115000BCF1120F2AD119E0B8F5881F19D006DCAE
:10116000B8F5803F15D0B8F5801F1FD111E0B8F554
:10117000001F0ED0B8F5041F18D10AE0CB6815E0A7
:10118000CB681B1D12E0CB6808330FE0CB680C3333
:101190000CE08B682BB1012B4FF0080303D04561A5
:1011A00004E0042302E0056100E00023FF2A01D8E7
:1011B000064601E000F104064FEA840501D9A5F1D5
:1011C0002005D6F8008007FA05FC28EA0C0803FA87
:1011D00005F548EA0508C6F800804D68ED0062D5BF
:1011E000374DAE6946F00106AE61AD6924F00306E5
:1011F00005F001050095334D06EB050CDCF80850B1
:10120000A607360F07FA06F825EA0805DFF8B880C2
:10121000404503D14FF0000817E044E0DFF8AC8010
:10122000404502D14FF001080FE0DFF8A4804045AF
:1012300002D14FF0020808E0DFF89880404502D163
:101240004FF0030801E04FF0040808FA06F848EAF6
:101250000508CCF808804D68D9F80060ED024D46CD
:1012600001D5164300E096432E604D68DAF8006021
:10127000AD02554601D5164300E096432E604D68F9
:10128000DBF80060AD035D4601D5164300E09643F0
:101290002E604D68DEF80060ED03754601D51643FB
:1012A00000E096432E60641C0D682A46E5407FF4FA
:1012B00031AFBDE8F88F00000804014000001110B4
:1012C000001002400000014000080140000C0140F5
:1012D00000100140001401408068084000D0012047
:1012E00070470AB1016170470904FBE70148806853
:1012F0007047000028000020704770472DE9F0413A
:10130000016804464A694E6890F83E000025D743BC
:10131000FA050BD4F243D20508D46FF4807201258C
:101320004A6121680A6842F400420A60B90508D49B
:10133000F143C90505D422686FF4007145F0020538
:101340005161790525D4F143C90522D4638D94F800
:101350003D10226B202808D13BB9212910D0292922
:101360000ED0282901D1212A0AD022686FF4806189
:10137000516145F00405102806D0402804D008E04B
:10138000204602F0E1FA04E02068016841F40071AF
:101390000160380508D4F043C00505D421686FF416
:1013A000006045F008054861002D07D0206C2843F7
:1013B00020642046BDE8F04101F050BEBDE8F08158
:1013C0002DE9F047026800215368C66A90F83E4054
:1013D00090F83D50102C12D0402C10D0046C002CF2
:1013E0007DD05469E443A6077AD4DE43B60577D4AA
:1013F000036C03B19169BDE8F04702F081BA9769C7
:1014000051694FF42A0CC9435FEAC1784FF02A4969
:1014100004D066452AD04E4528D010E0DE43B605FC
:101420000DD4C16A614501D1012103E0C16A49457A
:1014300001D10821C162BDE8F04702F0C7B90E072B
:1014400016D4DE43B60513D4416CC9B21161416BA9
:1014500009B1896A29B9816B002907D0896A0029F5
:1014600004D00068416841F400614160BDE8F08744
:101470008E0706D4DE43B60503D4BDE8F04702F07C
:10148000F9B8FE43526876074FEA02521DD4002A8B
:10149000ECDB0A0608D4DA43520505D4490705D522
:1014A000BDE8F04702F08AB84907DFD4D94389057F
:1014B000DCD4212D05D0402CD8D1BDE8F04702F076
:1014C000CBB9BDE8F04702F037B8002ACEDB4A06B8
:1014D0000BD4DA43520508D4490708D501E00DE0E2
:1014E0000EE0BDE8F04701F0E9BE4907BED4D9439C
:1014F0008905BBD4BDE8F04701F073BE916970E780
:10150000E10606D4D943890503D4BDE8F04702F0CB
:1015100063BA2821212D27D0292D25D0650655D441
:10152000DD436D0552D4640752D590F83D30448DAB
:10153000002C9BD01269446A2270426A521C42629B
:10154000428D521E4285428D002A8FD12A2B8DD189
:101550000268536823F4806353602222026380F898
:101560003D1000F0E1FB81E7250623D4DD436D0546
:1015700020D4640720D590F83D30448D002CF2D063
:10158000446A24781461426A521C4262428D521E9F
:101590004285428D002AE6D1292BE4D102685368A6
:1015A00023F4806353602122026380F83D1000F031
:1015B000BCFB5BE76107D6D4D9438905D3D4418D01
:1015C0000029D0D0416A097811610AE06107CAD4C4
:1015D000D9438905C7D4418D0029C4D01169426A15
:1015E0001170416A491C4162418D491E41853DE7A8
:1015F0007047000070B5040025D094F83D00002528
:1016000020B984F83C50204600F032FB242084F8B6
:101610003D002068016821F0010101602068016837
:1016200041F4004101602068016821F4004101603B
:1016300001F016FA4D4A6168914201D84C4900E028
:101640004C49884201D2012070BD4B492368B0FB50
:10165000F1F15E6826F03F060E435E6063689342D8
:1016600006D94FF4967359434FF47A73B1FBF3F1F3
:101670002368491C1E6A26F03F06314319626168DF
:10168000914210D84900401EB0FBF1F2521CC2F347
:101690000B02042A01D2042022E0B0FBF1F0401C2E
:1016A000C0F30B001CE0A268F2B301EBC10303EB33
:1016B0000116431EB3FBF6F35B1C43F480431B058A
:1016C00049D092B301EBC10202EB0111401EB0FB05
:1016D000F1F0401CC0F30B0040F4804040F40040A7
:1016E0002168CA694CF6FF739A431043C861D4E974
:1016F000071001432068026822F0C0021143016014
:10170000D4E9030101432068826848F2FF339A4319
:1017100011438160D4E9050108432168CA6822F0B9
:10172000FF021043C86001E00EE016E02068016887
:1017300041F0010101602564202084F83D0025630B
:1017400084F83E50002070BD01EB4106431EB3FB00
:10175000F6F35B1CB3E70120C2E701EB4101401E39
:10176000B0FBF1F0401CC0F30B00B7E7A08601000E
:1017700080841E0000093D0040420F002DE9FF4F0C
:1017800081B089460446FFF7B1FD054694F83D0057
:101790004FF0000820287DD119230122504920460E
:1017A000009502F0F3F9002874D194F83C00012868
:1017B00070D0012084F83C0020680168C90703D17B
:1017C000016841F0010101602068016821F40061B5
:1017D0000160242084F83D00002626644148E06230
:1017E0004FF0011B20272068016841F480710160DF
:1017F0000095002259462046049B02F0C7F950B1DB
:1018000020680068C00502D54FF4007020640320F2
:1018100005B0BDE8F08F216809F0FE000861FFF710
:1018200065FD2168054648694969C0F34000C1F378
:1018300080214FF0A00A0FE0FFF758FD411B0498EC
:10184000814200D808B984F83DA0216848694969F7
:10185000C0F34000C1F3802194F83D20A02A02D0BB
:1018600008B90029E8D084F83D7020684169C9436F
:10187000890716D4016841F400710160206841694C
:1018800080691923012216492046009502F07EF94D
:10189000B8B900E021E084F83D7084F83C60002095
:1018A000B6E7016841F40071016021686FF480605F
:1018B0004861192301220A492046009502F066F981
:1018C00008B10120A4E7039808F1010880458AD3F4
:1018D00084F83D7084F83C60F3E7022098E700004C
:1018E000020010000000FFFF7047704770470000C3
:1018F0002DE9F84F0025DDF82890984617468A46CE
:1019000004460095FFF7F2FC064694F83D002028B7
:101910007AD11923012286492046009602F036F931
:101920000028F5D194F83C0001286DD0012084F8FE
:101930003C0020680168C90703D1016841F001013A
:1019400001602068016821F400610160222084F8B0
:101950003D00102084F83E0025646762A4F82A80C8
:10196000608D20857348E06233464A4651462046E2
:1019700001F01EFD00287CD1208DDFF8BC812027DE
:1019800068B1012814D00228206801681ED041F4F3
:10199000806101602068416980690090BBE0206837
:1019A000416981690091016841F400710160B2E010
:1019B0002068016821F48061016072B62068416985
:1019C00081690091016841F400710AE041F400610D
:1019D000016072B62068416981690091016821F453
:1019E0008061016062B696E0032865D801280CD0BA
:1019F00002284B464FF000024146204600960BD08D
:101A000002F0C4F8A8BB0CE090E0324649462046FC
:101A100002F062F968BB71E002F0B8F848BB72B638
:101A200033E02068016821F48061016072B62068AB
:101A30000069616A0870606A401C6062208D401E07
:101A40002085608D401E60853C4846F2A8110068E4
:101A5000B0FBF1F0C0EBC00000EB80000090401E36
:101A6000009007D020684069C04340070DD500981A
:101A7000F5E727E044F8305F6773A573206940F00D
:101A80002000206162B625731CE02068016841F4E3
:101A90000071016020680069616A0870606A401C1A
:101AA0006062218D491E2185618D491E618562B666
:101AB00021680969017025E032464946204602F056
:101AC0000BF910B10120BDE8F88F20680069616A48
:101AD0000870606A401C6062208D401E81B22185C2
:101AE000608D401E608520684269D243520712D43F
:101AF000032903D1016821F4806101602068006935
:101B0000616A0870606A401C6062208D401E2085FA
:101B1000608D401E6085208D00287FF465AF84F8BD
:101B20003D7084F83E5084F83C50CCE70220CAE770
:101B3000020010000000FFFF04000100340000203C
:101B40002DE9F84F1F4690468A460446DDF8289056
:101B5000FFF7CCFB054694F83D0020287FD11923E0
:101B6000012240492046009502F010F8002876D165
:101B700094F83C00012872D0012084F83C002068D1
:101B80000168C90703D1016841F0010101602068C3
:101B9000016821F400610160212084F83D001020DB
:101BA00084F83E0000262664C4F824806785608D92
:101BB00020852D48E0622B464A465146204601F0DA
:101BC0006DFC90B9206841698069009036E02A4632
:101BD0004946204602F0B8F850B1206C042804D1E0
:101BE0002068016841F4007101600120BDE8F88FB0
:101BF000606A216800780861606A401C6062618DDB
:101C0000491E6185218D491E89B22185226853694B
:101C1000DB435B070BD451B100781061606A401C54
:101C20006062608D401E6085208D401E20852A46A2
:101C30004946204601F07EFF0028CED1208D0028A5
:101C4000C5D154F83D0B016841F4007101602020BA
:101C500004F81E09E67766770020C7E7FFE7022051
:101C6000C4E70000020010000000FFFF704770474B
:101C700030B585B000210091019102910391264D6C
:101C80000368264C122103222548AB4218D1A369D0
:101C900043F00803A361A369039203F008030493CC
:101CA000C023CDE900316946FFF726FAE06940F428
:101CB0000010E061E06900F40010049005B030BD50
:101CC000184DAB42FAD1A36943F00803A361A3699D
:101CD000039203F0080304934FF44063CDE900310D
:101CE0006946FFF709FAE06940F48000E061E069C5
:101CF000002200F4800004900221212000F07CF8F2
:101D0000212000F06BF800220221222000F074F85C
:101D1000222000F063F8D1E7005400400010024098
:101D2000000C01400058004070477047024881682D
:101D3000027811448160704728000020074810B5E0
:101D4000016841F010010160032000F075F80F20D8
:101D500000F006F800F024F8002010BD002002403A
:101D600070B50D4D04464FF47A712878B1FBF0F050
:101D70000A490968B1FBF0F001F048F848B9102CA5
:101D800007D200222146501E00F036F800206C6079
:101D900070BD012070BD000028000020340000202C
:101DA0000C4808B5816941F001018161816901F048
:101DB00001010091C16941F08051C161C06900F029
:101DC000805000900448416821F0E06141F00071CA
:101DD000416008BD0010024000000140002809DBFE
:101DE00000F01F02012191404009800000F1E02035
:101DF000C0F8001170470000F0B40E4B1B680C4691
:101E0000C3F30223C3F10705042D00D90425191DCE
:101E1000072901D2002300E0DB1E012606FA05F1A6
:101E2000491E214099409E40761E16403143F0BC29
:101E300004F0D2B80CED00E0064900F00702086893
:101E40004FF6FF03184040EA0220034A104308609F
:101E5000704700000CED00E00000FA0510B50C061C
:101E600007D501F0070101EB810100EBC100103043
:101E700005E001EB810100EBC10000F5A87099B20B
:101E800032B1012202730181190C4181002010BD81
:101E900000220273C180F9E7704701EB810200EB79
:101EA000C202D0F8D402526A03F035B801EB8102C5
:101EB00000EBC202D0F8D402D2F8642103F08EB84D
:101EC00070B504460B0601F0070000EB800104EB3F
:101ED000C1014FF001024FF0000502D54A741031E4
:101EE00003E081F8515101F5A871087094F890024F
:101EF000012808D084F89022206803F0BFFC84F801
:101F00009052002070BD022070BD70B5044601F0F3
:101F10000F002279904201D9012070BD0B0601F01B
:101F2000070000EB800104EBC1014FF001024FF00C
:101F3000000502D54A74103103E081F8515101F5D2
:101F4000A8718D70087094F89002012808D084F868
:101F50009022206803F02FFD84F89052002070BD7D
:101F6000022070BD2DE9F05F04685FEA424C0B78F7
:101F70008D69B4F850C04FF000064BF68F7948F2E7
:101F8000800A48F68F7B48F2C00E4FF480672AD54E
:101F90004FF0020808EBC308C44407EB4C07E45BAE
:101FA000C4F30904A54203D32D1B8D6101D00BE0BE
:101FB0008E61066836F8235005EA090585F4005558
:101FC00045EA0A0526F82350520609D50D7803681C
:101FD00033F8252002EA0B0242EA0E0223F82520FC
:101FE00084B30A8929E04FF0060808EBC308C4440B
:101FF00007EB4C07E45BC4F30904A54203D32D1B94
:102000008D6101D00BE08E61066836F8235005EA39
:10201000090585F4005545EA0A0526F823505206BD
:1020200009D40B78056835F8232002EA0B0242EA4E
:102030000E0225F823202CB14A89496900682346FD
:1020400003F098FF2046BDE8F09F2DE9F05F0546BC
:1020500000680C465FEA426C16468B692278B0F83D
:1020600050C048F68F774CF280094FF4004B4FF682
:10207000FF7E4FF4806A4FF0000172D54FF00208E6
:1020800008EBC208E0440AEB480C30F80C00C0F33F
:102090000900834211D91B1AA3610FD0730407D51D
:1020A0002E6836F822303B4043EA090326F82230F6
:1020B00094F82420012A47D052E1A161607810B140
:1020C000012813D01AE02868B0F85030184400EB0B
:1020D0000210B0F80424C2F30902A0F80424B0F8F6
:1020E000042442F40042A0F8042407E02868B0F871
:1020F0005030184400EB0210A0F8041462782868ED
:1021000012B1012A11D018E0B0F85010084421781B
:1021100000EB0110B0F80C14C1F30901A0F80C1485
:10212000B0F80C1441F4004105E0B0F85020104420
:10213000227800EB0210A0F80C1421782846FFF753
:10214000ACFE700472D40BE1626902446261E26920
:102150000244E2612369226A9A4203D31846111AA3
:1021600004E03EE084F824100AB110462162617850
:1021700011B1012929D031E02968B1F8502011446A
:10218000227801EB0211B1F80424C2F30902A1F88C
:10219000042401F204413E2807D94209C30600D1B4
:1021A000521E0B884BEA822207E048B14208C3075F
:1021B00000D0521C0B880EEA822213430B800DE0E4
:1021C0000A8842F400420A8008E02968B1F85020E9
:1021D0001144227801EB0211A1F8040483B2228990
:1021E000BAE04FF0060808EBC208E0440AEB480CDE
:1021F00030F80C00C0F30900834211D31B1AA3610D
:102200000FD0730407D42E6836F822303B4043EADF
:10221000090326F8223094F82420012A51D09FE0A7
:10222000A161607818B1012814D01BE03FE0286854
:10223000B0F85030184400EB0210B0F80424C2F398
:102240000902A0F80424B0F8042442F40042A0F8E3
:10225000042407E02868B0F85030184400EB02105E
:10226000A0F804146278286812B1012A11D018E08D
:10227000B0F850100844217800EB0110B0F80C14AD
:10228000C1F30901A0F80C14B0F80C1441F400419A
:1022900005E0B0F850201044227800EB0210A0F8BE
:1022A0000C1421782846FFF7F8FD700458D42278E2
:1022B000296831F82200384040EA090021F822005C
:1022C0004EE0626902446261E2690244E2612369AC
:1022D000226A9A4203D31846111A216204E00AB115
:1022E0001046216284F824106278296812B1012A0C
:1022F00028D02FE0B1F850201144227801EB0211D0
:10230000B1F80C24C2F30902A1F80C2401F20C412B
:102310003E2807D94209C30600D1521E0B884BEA5A
:10232000822207E048B14208C30700D0521C0B8844
:102330000EEA822213430B800CE00A8842F400422A
:102340000A8007E0B1F850201144227801EB021115
:10235000A1F80C04628983B26169286803F028FE41
:102360002278296831F8220048F6BF73184080F0BF
:10237000300048F28003184321F822000020BDE815
:10238000F09F2DE9F04104460F0601F0070000EB35
:10239000800104EBC1014FF001064FF0000502D5AA
:1023A0004E74103103E081F8515101F5A871022BF0
:1023B00008700A61CB7000D10D7194F89002012869
:1023C00009D084F89062206803F008F9284684F860
:1023D0009052BDE8F0810220FBE710B501F0070440
:1023E00004EB840100EBC101C1E959230022C1F8CB
:1023F0006C2181F8512181F85041006801F5A871E4
:1024000003F02EFB002010BD70B504460D4601F010
:1024100007002179884201D9012070BD29064FF0BB
:1024200000064FF0010206D500EB800104EBC1016C
:102430004A74103107E005EB850104EBC10181F816
:10244000516101F5A8718A70087094F89002012812
:1024500007D084F89022206803F0E9FA680702D0D8
:1024600006E0022070BD04F52671206803F0A1FA91
:1024700084F89062002070BD10B501F0070404EBF1
:10248000840100EBC101C1E90923012281F8342054
:102490000B630023CB624A7401F8104F006803F00D
:1024A000DFFA002010BD00001FB50446006803F0ED
:1024B0005DFD010403D5204601F0D4FE1FBD41059A
:1024C0000DD5206830F8441F21F48061018020463A
:1024D00000F008F90021204600F01FF91FBD41045B
:1024E00005D5206830F8441F21F4804174E0810450
:1024F00005D5206830F8441F21F400516CE0C10478
:1025000014D5206830F8401F21F0040101802068B4
:1025100030F8401F21F008010180204600F0F5F856
:10252000206830F8441F21F4805155E0010540D562
:10253000D4F800200020694632F8203021F810300D
:10254000401CC0B20828F7D332F8400F40F0010019
:102550001080206830F8402F22F0010202802068AD
:10256000B0F844205205FBD530F8442F22F48062A5
:1025700002800020236831F8102023F82020401C1E
:10258000C0B20828F6D3206830F8401F41F0080197
:102590000180206830F8441F21F400610180206828
:1025A00030F8401F41F004010180204600F0E8F8B7
:1025B0001FBD810509D5206830F8441F21F4007142
:1025C0000180204600F0A5F81FBDC005FCD520689D
:1025D00030F8441F21F4807101801FBD2DE9F041C6
:1025E000040004D094F89102002518B107E00120FE
:1025F000BDE8F08184F89052204600F04DF80320A9
:1026000084F891026571206803F0CCF994E80F001A
:1026100003F032F9022698BB0021206803F0C0FCC9
:1026200070BB002001270BE000EB800104EBC1012F
:102630004F740874CD740D624D62401CC0B28D623F
:1026400021798142F0D8002012E000BF00EB800128
:1026500004EBC10181F8515181F8500181F85351C7
:10266000C1F86051C1F86451401CC0B2C1F8685152
:1026700021798142EAD894E80F0003F08AF910B179
:1026800084F89162B3E7657384F89172206803F06F
:102690007EF90020ACE7000008B500680F498842C9
:1026A0001AD10F48C16941F40001C161C06900221B
:1026B00000F40000009001211320FFF79DFB132080
:1026C000FFF78CFB002201211420FFF795FBBDE8EA
:1026D00008401420FFF782BB08BD0000005C0040EA
:1026E0000010024070B5044680790125022801D00F
:1026F000FEF745F92946D4F8D40202F047FDD4F894
:10270000D402BDE8704002F003BDD0F8D40202F05C
:1027100027BDD0F8D40202F02DBD10B5044690F8C4
:10272000900201280AD0012084F890026173206889
:1027300003F038FC002084F8900210BD022010BD88
:10274000D0F8D42200F52671104602F02BBD10B54A
:10275000044690F89002012810D0012084F89002DD
:10276000206803F0EEFB01212046FFF795FB20686F
:1027700003F00BF9002084F8900210BD022010BD78
:1027800010B50446D0F8D40202F04BFDA07A002820
:1027900004D00348016841F00601016010BD00004B
:1027A00010ED00E010B501460020234C012922D095
:1027B000022939D010291DD161682268D20119D5AA
:1027C0001E48C1F38342C903805C0AD561681B4A75
:1027D000C1F34041921E515C194AB2FBF1F14843EA
:1027E00001E0184948436168490203D440000321CD
:1027F000B0FBF1F010BD226AC2F30121012903D11F
:10280000920701D5C80310BD022905D1626A92075B
:1028100002D549F6404010BD0329FCD12168890347
:10282000F9D54FF2244010BD00F02AF96168C1F3D8
:102830008131491C4900DBE7001002400A620008B0
:1028400000127A0000093D002DE9F84305460078A2
:10285000354CC00754D0E0690026C00008D4E069B8
:1028600040F08050E061E069012600F08050009067
:102870002E480168C90512D40168804641F4807170
:102880000160FEF733FD074605E000BFFEF72EFDB1
:10289000C01B642823D8D8F80000C005F6D5206AEC
:1028A00010F4407021D0A98801F4407181421CD0FD
:1028B000206A1F49012220F440700A6000220A6049
:1028C0002062C00711D0FEF711FD074641F288389B
:1028D00008E000BFFEF70AFDC11B414502D90320F5
:1028E000BDE8F883206A8007F4D5206A696820F47F
:1028F0004070084320621EB1E06920F08050E06122
:102900002878800705D56068A96820F4404008430E
:1029100060602878C00605D56068E96820F480000A
:10292000084360600020DBE70010024000700040B8
:10293000400442422DE9F0470F46050061D0434E66
:10294000306800F00700B84209D2306820F0070074
:1029500038433060306800F00700B84251D1286831
:102960003B4C810712D5400703D5606840F4E06016
:1029700060602878000703D5606840F460506060AC
:102980006068A96820F0F000084360602878C007FC
:1029900028D06868012810D02168022810D0890743
:1029A00000292EDA616821F0030101436160FEF71E
:1029B0009DFC804641F288390DE021688903EFE7EC
:1029C0008901EDE7FEF792FCA0EB0801494502D929
:1029D0000320BDE8F0876068696800F00C00B0EB88
:1029E000810FEFD1306800F00700B8420BD9306892
:1029F00020F0070038433060306800F00700B8422C
:102A000001D00120E5E72878400705D56068E9682E
:102A100020F4E060084360602878000706D560680D
:102A2000296920F4605040EAC100606000F038F885
:102A30006168084AC1F30311515CC8400649086047
:102A400006480068FFF78CF90020C2E7002002402A
:102A5000001002401A620008340000202C00002000
:102A60000448054900684968044AC1F30221515CE1
:102A7000C840704734000020001002402A6200085D
:102A80000448054900684968044AC1F3C221515C01
:102A9000C840704734000020001002402A6200083D
:102AA0000E4A51680E4801F00C03042B11D0082B7C
:102AB0000FD10C48C1F38343C903C05C0AD55168E8
:102AC000084AC1F34041921E515C054A5043B0FB95
:102AD000F1F070470449484370470000001002407D
:102AE00000127A00F861000800093D002DE9F84F56
:102AF000040070D02078C04DC00749D06868C0F38A
:102B00008100012807D06868C0F38100022809D13C
:102B10006868C00306D52868800339D56068002836
:102B2000E7D035E06068B0F5803F0BD010B1B0F56C
:102B3000A02F11D0286820F480302860286820F465
:102B4000802002E0286840F480302860606890B1FE
:102B5000FEF7CCFB06460AE0286840F48020286097
:102B6000F0E700BFFEF7C2FB801B642873D828681B
:102B70008003F7D50CE0FEF7B9FB064605E000BF81
:102B8000FEF7B4FB801B6428F0D828688003F7D4D4
:102B900020789A4E80074FF001094FF0000839D590
:102BA000686810F00C0F07D06868C0F38100022835
:102BB00009D16868C00306D42868800714D5206945
:102BC000012808D110E02069B0B1C6F80090FEF7E6
:102BD0008DFB074605E00AE1FEF788FBC01B0228D3
:102BE000C4D828688007F7D52868616920F0F80004
:102BF00040EAC10028600DE0C6F80080FEF776FBD1
:102C0000074604E0FEF772FBC01B022823D82868A1
:102C10008007F7D4207800072CD57948A169D9B16D
:102C2000C0F80090FEF762FB074604E0FEF75EFB8B
:102C3000C01B02280FD8686A8007F7D571484FF487
:102C4000FA510068B0FBF1F0009000BF0098411EFF
:102C50000091FAD20EE080E0C0F80080FEF746FB5B
:102C6000074604E0FEF742FBC01B022875D8686ADD
:102C70008007F7D42078400760D5E8690027C000B6
:102C800008D4E86940F08050E861E869012700F065
:102C9000805000905C480168C90513D401688346E0
:102CA00041F480710160FEF721FB824606E000BF1F
:102CB000FEF71CFBA0EB0A0064284ED8DBF80000EE
:102CC000C005F5D5E06801280AD008B1052813D061
:102CD000286A20F001002862286A20F0040002E03F
:102CE000286A40F001002862E06841F2883B98B110
:102CF000FEF7FCFA82460BE0286A40F004002862E6
:102D0000EEE700BFFEF7F2FAA0EB0A0159455AD8E8
:102D1000286A8007F6D50CE0FEF7E8FA824605E05F
:102D2000FEF7E4FAA0EB0A0159454CD8286A80075F
:102D3000F6D41FB1E86920F08050E861E06988B3FB
:102D40006968C1F38101022944D00228C6F8608075
:102D500004D0FEF7CBFA044638E034E0FEF7C6FABA
:102D6000074604E0FEF7C2FAC01B02282BD82868E9
:102D70008001F7D4206AB0F5803F05D16868A1686A
:102D800020F4003008436860D4E90801084369680A
:102D900021F4741108436860C6F86090FEF7A6FA43
:102DA000044606E025E000BFFEF7A0FA001B02285B
:102DB00009D828688001F7D51BE000BFFEF796FA16
:102DC000001B022802D90320BDE8F88F2868800183
:102DD000F4D40EE00128F7D06868226A00F480314C
:102DE000914204D1616A00F47010884201D0012040
:102DF000EAE70020E8E7000000100240000042423D
:102E000080044242340000200070004010B5401E93
:102E1000B0F1807F01D3012010BD4FF0E02460614C
:102E20000F21601703F0D8F80020A061072020616F
:102E3000002010BD70B5040004D094F841000025B6
:102E400010B106E0012070BD84F84050204600F02B
:102E500023F8242084F841002068C16821F400513F
:102E6000C160204601F0C0FD2068016921F4904155
:102E700001612068416921F02A0141612068C1682F
:102E800041F40051C1606564202084F8410084F859
:102E900042006563002070BD30B585B00024009409
:102EA00001940294039400681449884224D1144880
:102EB000816941F480418161816901F4804104911B
:102EC000816941F00401816180690E4D00F00400C8
:102ED00004904FF4007000900220019003200390B2
:102EE00069462846FEF708F92815CDE90004694629
:102EF00028460294FEF700F905B030BD00380140C5
:102F0000001002400008014038B5FDF789FC02239B
:102F100016498DF8003000248DF801400A881E2AD9
:102F200001D20C8004E040F6D275AA4200D90D808F
:102F3000012802D0022804D005E001208DF801000C
:102F400001E08DF8013002226946094801F045FF91
:102F50000A20FEF7BFF88DF80140022269460448B6
:102F600001F03BFF0A20FEF7B5F838BDF40200205F
:102F7000A0070020FEE700000148FEF7BFB90000EF
:102F8000580200200148FEF71BBA0000580200203A
:102F900038B5406A002190F83D202B4B46F2A8142A
:102FA0001B68B3FBF4F3C3EBC30303EB830300938E
:102FB0003BB15B1E009303681B689B0505D5009B16
:102FC000F6E7036C43F020030364436B03B199629B
:102FD000836B03B1996203681C6824F480641C60ED
:102FE0004185436B03B15963836B03B15963036834
:102FF0001C6824F001041C6090F83D402023602CE4
:103000000BD0282434EA02020FD080F83D3080F83B
:103010003E1000BFFEF7ECFA38BD80F83D3080F876
:103020003E100164FEF768F938BD0268136843F08A
:10303000010313600268136843F480631360016343
:1030400080F83D40E6E70000340000200068416958
:10305000C943090601D400210161704770B50446D7
:1030600090F83D0094F83E10102901D0402906D177
:10307000222804D121680A6822F400620A6028210B
:1030800031EA00024FF000054FF0200626D02168FB
:103090004968090505D4602803D084F83D6084F8A8
:1030A0003E50256320684168090537D5416821F401
:1030B00000614160606B90F821203C49012A11D0E9
:1030C0004163606BFDF7A6FE38B32068016821F00C
:1030D0000101016084F83D60606B1CE0256384F8A9
:1030E0003D10DFE7A06B4163A06BFDF793FEA0B13D
:1030F00020684169C943490605D40069616A0870BE
:10310000606A401C60622068016821F00101016072
:1031100084F83D60A06B416B884710E094F83D1047
:10312000602910D04169C943490605D40069616A24
:103130000870606A401C60622046FEF759FA206CF5
:10314000C1071CD115E084F83D6025644169C9437D
:10315000490605D40069616A0870606A401C6062B3
:103160002068016821F0010101602046FEF7C4F8E3
:10317000E5E7810703D4410701D4000704D520689F
:10318000416821F4E061416094F83D00216C4907F9
:103190000BD5282809D10648E062256384F83D60F4
:1031A00084F83E502046FEF79FFB70BD912F00082B
:1031B0000000FFFF01684A69D24352050FD46FF443
:1031C00080624A61002140F8301F202242738173DF
:1031D000026942F00402026101730120704700207D
:1031E000704710B5C26A438D0168042B06D0438D29
:1031F000032B08D0438D022B1DD012E04A6822F425
:1032000080624A600CE04B6823F480634B60042AC0
:1032100006D0022A04D001680A6822F480620A609B
:1032200001680969426A1170416A491C4162418D15
:10323000491E418510BD012A34D0102A32D0042AFB
:1032400034D0022A32D00B6843F400730B6001685B
:103250000969436A1970416A491C4162438D5B1ECA
:10326000438503681B690B70416A491C4162418DAB
:10327000491E418501684B6823F440734B6020214F
:1032800080F83D1090F83E300021402B80F83E1031
:1032900010D0082A02D0202A00D012210163FEF7A4
:1032A00024FB10BD0B6823F48063CFE70B6843F465
:1032B0008063CBE70163FEF7D9FC10BD38B590F809
:1032C0003D10222910D1C36A418D03290DD901680F
:1032D0000969426A1170416A491C4162418D491E67
:1032E0004185418D032906D038BDC26A022A02D029
:1032F000012906D029B10068416821F4806141604C
:1033000038BD2A4A46F2A81400211268B2FBF4F232
:1033100002EB8202009202682024009D6D1E00953F
:1033200026D01568AD05F8D4156825F480651560BC
:103330000268556825F4E065556002681269456ABF
:103340002A70426A521C4262428D521E428580F8A7
:103350003D4090F83E2080F83E10402A21D0082BB6
:1033600002D0202B00D012210163FEF7BEFA38BD37
:10337000036C43F020030364536823F4E063536059
:1033800002681269436A1A70426A521C4262428D94
:10339000521E428580F83D4080F83E10FEF728F925
:1033A00038BD0163FEF762FC38BD00003400002028
:1033B0002DE9F84F0446C06A1E4693460D46216823
:1033C0000A6842F480620A60082807D0012805D004
:1033D00010F5803F02D0206B112804D120680168CD
:1033E00041F4807101604FF001195B4600224946AB
:1033F0002046009600F0CAFB4FF4007840B12068E8
:103400000068C00501D5C4F840800320BDE8F88FEE
:103410002069DFF884A0B0F5804F0FD00620216826
:1034200000EAD51747F0F000086133465A460AF122
:103430000601204600F0F2FB58BB03E0E8B240F082
:1034400001001CE02168E8B2086133465A46514643
:10345000204600F0E3FBE0B92068416981690091F2
:10346000016841F4807101605B46002249462046B4
:10347000009600F08BFB0028C1D147F0F1002168D5
:10348000086133465A465146204600F0C7FB0028E3
:10349000BCD00120BAE7000002000100F8B50446E4
:1034A000C06A1E460D461746082807D0012805D0D9
:1034B00010F5803F02D0206B122804D120680168EB
:1034C00041F480710160134600224FF00111204643
:1034D000009600F05BFB40B120680068C00502D593
:1034E0004FF4007020640320F8BD2069B0F5804FD0
:1034F0000ED00620216800EAD51040F0F0000861E7
:1035000033463A460B49204600F088FB78B902E082
:1035100005F0FE0000E0E8B2216808610549334685
:103520003A46891F204600F079FB0028DCD00120B4
:10353000F8BD00000800010010B5C26A90F83D1007
:1035400021290BD1418D51B1416A0268097811617D
:10355000416A491C4162418D491E418510BD2023AD
:103560000021082A13D0202A11D012F5803F0ED056
:103570000268546824F4E06454601122026380F805
:103580003E1080F83D3000BFFEF7B0F910BD026874
:10359000546824F4E06454600268146844F40074CD
:1035A0001460016380F83D3090F83E2080F83E10B2
:1035B000402AE9D1FEF75BFB10BD000010B590F882
:1035C0003D1090F83E30C26A048DB4B1212903D079
:1035D000402B11D122290FD1418DE1B390F83E103B
:1035E000402942D0416A026809781161416A491C48
:1035F0004162418D491E418510BD2129E8D120231A
:103600000021082A13D0202A11D012F5803F0ED0B5
:103610000268546824F4E06454601122026380F864
:103620003E1080F83D3000BFFEF760F910BD026823
:10363000546824F4E06454600268146844F400742C
:103640001460016380F83D3090F83E2080F83E1011
:10365000402AE9D100E002E0FEF709FB10BD006856
:10366000416821F48061416010BDBDE8104000F068
:10367000F3B8000078B590F83E50C26A046B90F839
:103680003D6000230168222E73D1066D0EB9402DD6
:103690006FD0056D1DB90569B5F5404F1BD0458D3F
:1036A00095B3468D484D012E20D0448D022C4DD02F
:1036B0000C6844F480640C6001684C68240579D57A
:1036C000AA4273D0012A71D0082A6FD0102A6DD077
:1036D000202A6BD06EE04A698A6900920A6842F437
:1036E00080720A60016D491C016578BDAA4214D13F
:1036F0000A6822F480620A6001684A68120504D5EB
:103700000A6822F4806217E0FFE74A698A6900923A
:103710000A6842F400720A6050E0082A10D0202A99
:103720000ED0122C0AD0042A03D0022A01D0102A6B
:10373000E6D10A6842F480620A603BE0012ADFD0E9
:103740000A6822F480620A600168DEE7042A11D068
:10375000022A0FD0102A0DD00C6844F400640C60CB
:1037600001684C698C6900940C6824F480640C60D6
:1037700008E025E00C6844F480640C6001684C6942
:103780008969009101684C68240517D5AA4207D0C1
:10379000012A05D0082A03D0102A01D0202A0DD1F1
:1037A0004A6842F480524A6008E0FFE74A6842F4FF
:1037B00080524A6001684A6989690091036578BD51
:1037C00048698869009078BD0000FFFF90F83E10BE
:1037D000402910D00169B1F5804F19D0016DA9B30E
:1037E000016D012910D1416C5FF0F10201F44071CB
:1037F00042EAD11106E0016D0029416C05D0C9B241
:1038000041F0010100680161704701F0FE01F9E734
:1038100090F83D102129416C09D0C9B241F0010155
:1038200002681161416B29B1896A49B902E001F06E
:10383000FE01F5E7816B0029E6D0896A0029E3D013
:103840000068416841F4006141607047FFE7416CE6
:10385000F02201F44071CBE710B590F83D10026DF5
:103860004AB1026D012A14D0026D022A16D0BDE8B9
:103870001040FFF7EBBBC16C0129816C02D0C1F392
:10388000072108E00268C9B21161016D891C016558
:1038900010BD816CC9B20268116123E022291CD0DD
:1038A000428D0AB1212920D0428D002AF0D1212950
:1038B000EED101684A6822F4E0624A6001680A6851
:1038C00042F400720A6000210163202280F83D204A
:1038D00080F83E10FEF7CBF910BD01680A6842F48B
:1038E00080720A60016D491CD1E7416A026809785B
:1038F0001161416A491C4162418D491E418510BDDB
:1039000038B50C4690F83D200021282595430268E3
:103910000B4605D051699169009180F83C3038BD63
:10392000556825F480655560E243540700D50121B0
:10393000120601D5828900E0028B80F83C3092B2F9
:10394000FDF7DBFC38BD00002DE9F04190F83D307B
:103950000446C26A002120261E4F00686FF480656D
:10396000082A01D0202A01D1282B04D0212B17D0DE
:103970004561BDE8F081E762426822F4E06242609E
:10398000206845612068026822F480620260216339
:1039900084F83D6084F83E102046FDF7A5FFE8E777
:1039A000E7622122226384F83D6084F83E1041687A
:1039B00021F4E0614160206845612068016821F4DC
:1039C000806101602046FFF741FB2046FEF7ADF91C
:1039D000CFE700000000FFFFF8B590F83D60044617
:1039E0000068416821F4E061416020680025416978
:1039F0000091016841F0010101602068016821F433
:103A00008061016020684168090520D5474F222E5A
:103A100048D02A2E46D0616B096849686185618D5E
:103A200019B1216C41F004012164416821F4006165
:103A30004160606BFDF73AFA012808D0606B47637C
:103A4000606BFDF7E7F910B1606B416B8847608DE3
:103A500008B320684169C943490708D40069616A0D
:103A60000870606A401C6062608D401E608520683E
:103A70004169C943490608D40069616A0870606AEF
:103A8000401C6062608D401E6085608D18B1206CA6
:103A900040F004002064206C00B32046BDE8F840EC
:103AA000FFF7DCBAA16B096849686185618D19B1BE
:103AB000216C41F004012164416821F400614160FE
:103AC000A06BFDF7F3F90128C1D0A06B4763A06B91
:103AD000FDF7A0F90028BAD0A06BB6E72A2E06D1D0
:103AE0002563282084F83D002046FEF71DF994F850
:103AF0003D10202028290DD0216B222901D0222E13
:103B000007D1256384F83D0084F83E502046FEF737
:103B10000BF9F8BD0649E162256384F83D0084F89D
:103B20003E502046FDF7E0FEF8BD0000912F000852
:103B30000000FFFF70B516460D4604461EE0204605
:103B4000FFF738FB08B1012070BD681C16D0FDF7E7
:103B5000CDFB801BA84200D885B920684069C043CE
:103B600040070BD5002044F8300F20216173A0736B
:103B7000216941F0200121612073E4E72068406958
:103B8000C0434007DBD4002070BD00002DE9F047A2
:103B9000984617460D460446C1F30746DDF82090C7
:103BA0002AE000BFB8F1FF3F26D0FDF79FFBA0EB56
:103BB0000901414502D8B8F1000F1DD12068012E3E
:103BC00016D0806925EA00000004000C12D0002005
:103BD000B84211D1002044F8300F20216173A07346
:103BE000216941F02001216120730120BDE8F087A7
:103BF0004069E7E70120EBE72068012E0AD08069E1
:103C000025EA00000004000C06D00020B842C9D00C
:103C10000020EBE74069F3E70120F7E72DE9F047E3
:103C2000984616460D4604464FF000094FF0200A0C
:103C3000C1F3074723E020684069C043400515D41D
:103C40002068016841F40071016021686FF48060B0
:103C50004861C4F8309084F83DA084F83E90216C0F
:103C600041F00401216484F83C9021E0701C06D0EE
:103C7000FDF73CFBA0EB0800B04203D816B1012FC2
:103C80001FD021E02068012F15D0806925EA0000AF
:103C90000004000C18D000BF44F8309F84F80DA039
:103CA00084F80E90216941F02001216184F80C9084
:103CB0000120BDE8F087406925EA00000004000CFF
:103CC000EAD12068406901E02068806925EA0000A7
:103CD0000004000CAFD1ECE72DE9F041002590463F
:103CE0000E460446202728E04069C043C0060CD495
:103CF00054F8301B6FF01000486144F81059677792
:103D0000A577206A2062257714E0FDF7EFFAA0EB93
:103D10000800B04200D886B920684069C043400618
:103D20000BD544F8305F6773A573206940F020001D
:103D3000206125730120BDE8F08120684169C943F5
:103D40004906D1D40020F6E770B516460D46044664
:103D50001EE02046FFF72EFA08B1012070BD681C56
:103D600016D0FDF7C3FA801BA84200D885B9206899
:103D70004069C04300060BD5002044F8300F2021D5
:103D80006173A073216941F0200121612073E4E790
:103D900020684069C0430006DBD4002070BD0000ED
:103DA000F0B500230A24302537261F4611E000BF56
:103DB000B4EB107F02D905EB107C01E006EB107C20
:103DC00001F813C001EB430C00015B1C8CF801707F
:103DD000DBB29342ECD3F0BD2DE9F047354C002225
:103DE00008212046FDF77DFA012230212046FDF70B
:103DF00078FA314EA51529463046FDF76DFA0028B0
:103E000046D0EF0139462046FDF766FAE8B34FF495
:103E1000804841462046FDF75FFAB8B300221021E2
:103E20002046FDF75EFA012228212046FDF759FAC7
:103E3000A94629463046FDF74FFA40B33946204699
:103E4000FDF74AFA60B3454641462046FDF744FA7D
:103E500040B3002220212046FDF743FA0122182119
:103E60002046FDF73EFA49463046FDF735FAD8B10F
:103E700039462046FDF730FAC0B129462046FDF705
:103E80002BFAA8B10020BDE8F08703E004E005E0CC
:103E90000120F8E70220F6E70320F4E70420F2E728
:103EA0000520F0E70620EEE70720ECE70820EAE728
:103EB0000920E8E7000C014000080140184840696B
:103EC0000A282BD2DFE800F02A05090D1115191D6B
:103ED000212528220A2113A01EE02822114616A01F
:103EE0001AE02822114616A016E02822114616A034
:103EF00012E02822142116A00EE02822114617A055
:103F00000AE02822114617A006E02822142117A053
:103F100002E02822142119A000F088B9704700009F
:103F20000000002053637265656E206361707475D4
:103F300072656421000000004375742100000000D8
:103F4000436F70696564210050617374656421007A
:103F5000536F756E64206F6666210000556E646F46
:103F6000210000005265646F2100000050617573EC
:103F7000652F20506C617921000000004E65787437
:103F800020747261636B210010B5FFF725FF1349A0
:103F90000A28486120D2DFE800F01F05080A0C0E4D
:103FA0001012181A462100200BE01B2108E0062100
:103FB00006E0192104E004200AE01D2100E01C2194
:103FC0000120BDE8104000F0AFBC082000E0102048
:103FD000BDE8104000F08ABC10BD000000000020C9
:103FE0003EB5002411480094019402940E49846067
:103FF000016001250573047505614FF4602144607B
:10400000C161FCF7ADFD08B172B6FEE70720CDE94E
:104010000005694602940548FCF720FD002801D000
:1040200072B6FEE73EBD000000240140D40100202E
:1040300070B586B000241F48009401940294039444
:10404000816941F020018161816901F020010491C1
:10405000816941F004018161816901F004010491E9
:10406000816941F0080181618069134E00F0080008
:104070000490002238213046FDF733F94FF44040D8
:1040800001258DE8310069463046FDF735F82802F4
:104090008DE8310069460948FDF72EF83820CDE952
:1040A00000050220CDE9024069463046FDF724F8BC
:1040B00006B070BD00100240000C01400008014035
:1040C00010B500220B490C4800F0FEFE08B1FCF7C9
:1040D00056FC0A49084801F0CAF808B1FCF74FFC41
:1040E000054801F019F9002803D0BDE81040FCF79D
:1040F00046BC10BD54000020A0070020A4000020F2
:10410000FEE7FEE710B50C4C2078002813D0FDF731
:10411000EDF8E168401AB0F57A7F0CD36178A078A9
:1041200000F0A0FA0122054905A000F0A5FB00F06F
:10413000B7FB0020207010BD0000002038000020D8
:10414000202020202020202020202020202020206F
:104150002000000038B52648FCF7D4FB244C25A1EC
:1041600094F90000009094F9013094F90220254858
:10417000FCF752F814210F2000F074FA01222249B2
:10418000204800F079FB2046FCF78CFB0546052112
:104190005A2000F067FA1D4905EB850001EB40024B
:1041A00018481BA11430FCF737F8164801221949AA
:1041B000143000F061FB0521084600F053FA94F931
:1041C000060000900F4894F9053094F9042012A1DC
:1041D0001430FCF721F80B4801220E49143000F08E
:1041E0004BFB00F05DFBBDE83840FFF78BBF0000E4
:1041F00018000020253032643A253032643A2530E8
:10420000326400003403002040000020B061000848
:104210002573000038000020253032642F2530320D
:10422000642F3230253032640000000070B50E4635
:10423000044615461146304600F014FA012207499B
:10424000204600F019FB00F02BFB054C0120A67066
:1042500065702070FDF74AF8E06070BD38000020FE
:10426000000000202DE9F84F044640F68F7B48F609
:104270000F794FF480684FF0000ABDE1B0F84410A8
:1042800011F00F0539D030F8256031047ED530F8B3
:10429000251001EA0B0141F0800120F8251005EB03
:1042A000850004EBC00797F85C0107F5A8770028A4
:1042B0006DD0F87802286BD03978226832F8210066
:1042C00048F68F73184048F2C003184322F82100C3
:1042D0003978206830F82120B0F8503052047DD56C
:1042E000022202EBC1015A1808EB4201415A89052A
:1042F000890D009173D03A89DDE0C9062BD401887D
:1043000001EA090141F400410180206804F110052F
:10431000B0F85030217C022202EBC1015A1808EBA0
:104320004201405AC0F30900E062616A08446062D9
:1043300000212046FDF7B1FD607B00289DD0A869D3
:1043400000289AD1607B216840F08000A1F84C00E1
:1043500084F80DA050E1018804F5A8750A0521D55F
:10436000B0F850202B78062101EBC3010A4408EB7A
:104370004201405A04F52671C0F30903EB61EA8853
:10438000206801F0F7FD2068018802E0AEE06EE0F1
:104390007EE001EA0B0141F0800101802046FEF73A
:1043A000CFF929E10904D5D5018801EA0B0141F0D3
:1043B000800101802068B0F850202B78062101EBA5
:1043C000C3010A4408EB4201405A83059B0DEB618F
:1043D00010D0696971B1EA88206801E05FE05DE0B2
:1043E00001F0C8FDE9696869084468610021204658
:1043F000FDF75CFD216808880205ABD4C0F30130ED
:104400000328A7D0B1F850000844B0F80C14C1F349
:104410000901A0F80C142A6900F20C403E2A09D9BF
:104420005109D20600D1491E02884FF4004343EAE5
:10443000812109E0B2B15108D20700D0491C02889D
:104440004FF6FF7303EA81210A430280216808883E
:104450004BF68F72104080F4405048F280021043B7
:104460000880C9E0018841F400410180EEE720683E
:10447000B0F850203B78062101EBC3010A4408EB59
:104480004201415A8905890D009118D0FA8812E03D
:10449000324639462046FDF765FD00900FE00622C2
:1044A00002EBC1015A1808EB4201415A8905890DF6
:1044B000009104D07A897969009B01F05BFDF8696D
:1044C00000990844F8617969009808447861B869EE
:1044D00018B139690098814204D939782046FDF72E
:1044E000E5FC03E03946206801F0BAFA30062ED523
:1044F00005EB850004EBC001206830F8252002EAB6
:10450000090242F4004220F82520C87C103101281D
:104510001ED0F0056CD42068B0F850300D7802221F
:1045200002EBC5021A4408EB4202805A8A69C0F3C2
:104530000900824255D9121A8A6154D04A6902444C
:104540004A61CA691044C861206801F089FA53E0E1
:10455000C1F818A0087B524608B3700620D54878E9
:1045600010B1012812D03AE02068B0F85020104471
:104570000A7800EB0210B0F80424C2F30902A0F894
:104580000424B0F8042442F4004206E02068B0F8A5
:10459000503018440B7800EB0310A0F804241EE000
:1045A0004B78206813B1012B11D018E0B0F85020DF
:1045B00010440A7800EB0210B0F80C24C2F3090290
:1045C000A0F80C24B0F80C2442F4004205E0B0F846
:1045D000503018440B7800EB0310A0F80C24097835
:1045E00002E0C1F818A0E9B22046FDF756FC03E04E
:1045F00032462046FDF729FD2068B0F84410090432
:104600003FF53CAE0020BDE8F88F704770B58028BC
:1046100013D2402911D20B4B012401F007051E795A
:10462000AC40094BC90800EBC1100EB132B101E03A
:10463000012A03D0195CA143195470BD195C2143B0
:10464000FAE7000048000020A003002028B1FF2264
:104650004FF480610248FBF71BBF0022F8E700001F
:10466000A0030020014A10805180704748000020BC
:1046700010B501F06BFD44F6206301227821544807
:10468000FDF77CF808B1002010BD40F6C210401EB6
:10469000FDD1AE220021782001F05EFD2022002114
:1046A000782001F059FD10220021782001F054FDFE
:1046B000B0220021782001F04FFDC822002178208F
:1046C00001F04AFD00221146782001F045FD10223C
:1046D0000021782001F040FD40220021782001F0E7
:1046E0003BFD81220021782001F036FDFF220021D0
:1046F000782001F031FDA1220021782001F02CFD6D
:10470000A6220021782001F027FDA8220021782090
:1047100001F022FD3F220021782001F01DFDA4229E
:104720000021782001F018FDD3220021782001F02B
:1047300013FD00221146782001F00EFDD522002144
:10474000782001F009FDF0220021782001F004FD1D
:10475000D9220021782001F0FFFC222200217820BC
:1047600001F0FAFCDA220021782001F0F5FC122297
:104770000021782001F0F0FCDB220021782001F0FC
:10478000EBFC20220021782001F0E6FC8D220021A4
:10479000782001F0E1FC14220021782001F0DCFCFB
:1047A000AF220021782001F0D7FC2E2200217820B2
:1047B00001F0D2FC0020FFF749FF00F071F8054836
:1047C00000210180418001214171084610BD000097
:1047D00058020020480000202DE9F0478146254876
:1047E0000D46924601882A781144802905D28046D8
:1047F000408869780844402802D30020BDE8F0874B
:1048000000262AE0A9F1200101FB00606A6800246B
:1048100032F810701DE000BF07FA04F0000409D55B
:10482000B8F80210B8F800003144204489B280B2D0
:1048300052460BE0BAF1000F1AD00022B8F802106D
:10484000B8F800003144204489B280B2FFF7DEFEA0
:10485000641C2878A042DFD8761C6878B042D1D892
:10486000B8F800102A7848461144A8F80010C5E7A7
:104870000122E3E74800002070B515460E460446C5
:1048800009E02A463146FFF7A7FF2178884201D088
:10489000C8B270BD641C20780028F2D1C0B270BDCF
:1048A00070B5104D002400BF04F1B000C2B2002169
:1048B000782001F051FC00221146782001F04CFCD8
:1048C00010220021782001F047FC05EBC412802360
:1048D0004021782001F050FC641CE4B2082CE3D3A2
:1048E00070BD0000A00300207047000008B50CA1B7
:1048F0000222096800918DF801006946094800F01C
:104900006CFA3220FCF7E6FB00208DF80100022251
:104910006946044800F061FA3220FCF7DBFB08BD71
:1049200002000000A007002010B50C4C09226070A6
:10493000E17021460A4800F050FA3220FCF7CAFB29
:1049400000206070E07009222146054800F045FA19
:10495000BDE810403220FCF7BDBB00001F00002066
:10496000A0070020FDF7E2B930B593B028216846D2
:10497000FBF796FD14210AA8FBF792FD0024012005
:104980000F9410941194010412948DE81300049074
:104990004FF4E010CDE90810022507956846FEF7B0
:1049A000A5F808B172B6FEE70F20CDE90A054FF46D
:1049B0008060CDE90C4002210AA80E94FDF7BAFFF1
:1049C00008B172B6FEE712200F904FF40040CDE917
:1049D00011040FA8FDF738FF002801D072B6FEE7DA
:1049E00013B030BD7047000070B50446006801691F
:1049F000E26821F44051114301612169A068084334
:104A0000616908432168CA6841F20C639A43024312
:104A1000CA6020684169A26921F440711143416173
:104A20001E492068884202D1FEF72AF801E0FEF70D
:104A300017F800EBC00101EB0012606864218000F0
:104A4000B2FBF0F3B3FBF1F36FF018067343B2FB64
:104A5000F0F5B2FBF0F605EB8305322303EB051509
:104A6000B5FBF1F5B6FBF1F605F0F00505EB061523
:104A7000B2FBF0F6B2FBF0F0B0FBF1F06FF0180211
:104A8000504306EB800003EB0010B0FBF1F021680F
:104A900000F00F002844886070BD0000003801401D
:104AA00010B5D0F8B42252689047002010BD1346CC
:104AB00010B50A46002100F022FB002010BD13466D
:104AC00010B50A46002100F0B5FB002010BD10B55E
:104AD0000446802100F093FB2046BDE810400021F1
:104AE00000F08DBB10B505210023C0F894121A46C2
:104AF000194600F004FB002010BD10B50223C2616E
:104B0000C0F89432026213460A46002100F092FB7C
:104B1000002010BD10B504210023C0F894121A46DD
:104B2000194600F087FB002010BD000010B50A46B2
:104B3000024903A000F0DEF8004810BD640A00201E
:104B400048494420436F6E66696700001220088060
:104B5000004870477400002010B50A46024903A0BF
:104B600000F0C8F8004810BD640A002048494420FD
:104B7000496E7465726661636500000004200880F8
:104B8000004870477000002010B50A46024903A093
:104B900000F0B0F8004810BD640A002053544D697D
:104BA00063726F656C656374726F6E696373000026
:104BB00010B50A46024903A000F09CF8004810BD59
:104BC000640A002053544D3332204B6579626F6183
:104BD0007264000010B51A2008800A480168001DA0
:104BE0000468001D0068081809D008220649FFF76C
:104BF000D7F80549042210312046FFF7D1F80248C2
:104C0000801E10BDE8F7FF1F8A000020F8B504469B
:104C10000020ADF8000048880D46010A082948D256
:104C2000DFE801F04704091747473C45D4F8B012C4
:104C3000207C0A6819E0207C02260028D4F8B402FF
:104C400005D0C16A68468847014646703EE0816AE1
:104C5000F8E7C0B206282CD2DFE800F0030A1014EF
:104C6000181CD4F8B002426805E0694690471CE081
:104C7000D4F8B0028268E2B1207CF6E7D4F8B00242
:104C8000C268F8E7D4F8B0020269F4E7D4F8B002D9
:104C90004269F0E7D4F8B0028269ECE7207C40B9C1
:104CA000D4F8B402416B6846884701460EE0207C88
:104CB00020B129462046FFF70AFFF8BDD4F8B40218
:104CC000016B68468847014607204870BDF8000020
:104CD00048B1EA8852B1824200D90246ADF80020BC
:104CE0002046FFF70AFFE8880028E6D12046FFF7B4
:104CF00011FFF8BD70B5002300281ED00446002522
:104D000002E06D1CEDB2641C2678002EF9D102245D
:104D100004EB450414801278CA545B1C0322CA5465
:104D200000245B1C06E0CA545B1CDAB28C54521C93
:104D3000D3B2401C0278002AF5D170BD01004FF0BB
:104D4000000004D0012901D0022901D002207047BF
:104D500001207047D0F8B80200210173084670475F
:104D600070B50446812100F0CDF80025E562D4F845
:104D7000B80218B100F02DFCC4F8B852002070BD84
:104D80000A2101800048704754010020222101803F
:104D900000487047DC000020222101800048704755
:104DA00000010020222101800048704724010020DA
:104DB00010B5044604230322812100F094F9012058
:104DC000E062102000F006FCC4F8B80218B100211F
:104DD0000173084610BD022010BD10B5134690F8AF
:104DE0009C42D0F8B822032C07D1147B2CB90124A3
:104DF00014730A46812100F01DFA002010BD000046
:104E000038B503460022D0F8B802ADF800201446A9
:104E10000A7812F0600216D0202A4AD14A78022A73
:104E20000ED0032A06D00A2A06D00B2A41D189784F
:104E3000016042E001222BE04988090A41603CE020
:104E40000122011D25E04A7832B1062A0BD00A2A38
:104E500023D00B2A2DD128E093F89C02032828D1D7
:104E60000222694615E048882222B2EB102F05D1B4
:104E7000CA88722A00D97222124809E02122B2EBB4
:104E8000102F16D10F48CA881838092A00D90922CC
:104E900001461846FFF731FE0FE093F89C22032AE3
:104EA00007D1012200F10801F3E793F89C22032ABD
:104EB00005D01846FFF70BFE0224204638BD89783E
:104EC0008160FAE76001002010B580B1D0F8B432FB
:104ED00013B10023C0F8B43209B1C0F8B0120121F7
:104EE00080F89C12027000F0BBF8002010BD022078
:104EF00010BD10B5D0F8C002FDF707F8BDE81040AE
:104F0000FFF71CBF10B5D0F8C002FCF7D9FFBDE811
:104F10001040FFF713BF2DE9F0411746044651B189
:104F2000D4F8B40242691AB194F89C02032851D013
:104F30000220BDE8F081D4F89432002504F1140079
:104F4000022B03D0042B3AD0C3B33CE0D0E9036377
:104F50009E4207D9F11AC1608AB239462046FFF74E
:104F6000AEFD12E08068B0FBF3F103FB110199B9CB
:104F7000984211D3D4F8981288420DD200221146DB
:104F80002046FFF79CFDC4F8985200231A461946A4
:104F9000204600F0B4F816E0D4F8B402C16829B194
:104FA00094F89C02032801D120468847802120469E
:104FB00000F025F92046FFF795FD04E0FFE780218A
:104FC000204600F01CF994F8A002012804D184F8CE
:104FD000A05201E0204690470020AAE770B5154690
:104FE000044649B1D4F8B40282691AB194F89C021B
:104FF000032830D0022070BDD4F8941204F5AA70B2
:10500000032902D005291ED027E0D0E903218A42D6
:105010000BD9531AC3600846834200D303469AB2A1
:1050200029462046FFF743FD17E0D4F8B402016992
:1050300029B194F89C02032801D1204688472046D4
:10504000FFF768FD09E000200146C4F894022046FD
:1050500000F0D5F801E020469047002070BD000028
:1050600010B517490446C1F8D402C0F8C01215485B
:105070000860082008710220887100208872C872B8
:1050800008730846FDF7AAFA08B1FBF778FC00227E
:10509000D4F8C0021823114604F53074FCF7DEFE84
:1050A0005823002280212068FCF7D8FE4FF480733B
:1050B000002281212068FCF7D1FE002010BD0000F5
:1050C000780C0020005C00400A0601F07F01D0F857
:1050D000C00201EB810100EBC10001D5807C70476B
:1050E00090F85201704710B51C461346D0F8C00224
:1050F0002246FDF746F9BDE81040FFF71FBE10B588
:10510000D0F8C002FDF769F9BDE81040FFF716BE00
:1051100070B50022044640231146FFF7E4FF402605
:105120000125C4F864613346002280212046C4F87A
:105130005851FFF7D8FF6662A56184F89C520020A1
:10514000C4F894026060C4F8A402D4F8B80228B18C
:10515000D4F8B4020021426820469047002070BD78
:1051600090F89C12042903D190F89D1280F89C12AB
:105170000020704710B590F89C12032904D1D0F894
:10518000B412C96901B18847002010BD0174002024
:10519000704710B5D0F8C002FDF7BFFABDE8104067
:1051A000FFF7CCBD70B5044600F52A70054600F047
:1051B0004AF80120C4F89402B4F8AE02C4F8980288
:1051C00094F8A80210F01F010AD001290DD002297D
:1051D00010D000F08001204600F011F8002070BDD2
:1051E0002946204600F09DF8F8E72946204600F0C1
:1051F000C9F9F3E72946204600F01CF9EEE710B59F
:10520000D0F8C002FDF700F9BDE81040FFF796BDE9
:1052100010B5D0F8C002FDF79AFABDE81040FFF7CC
:105220008DBD90F89C1280F89D12042180F89C128C
:105230000020704710B5D0F8C002FDF71DF9BDE899
:105240001040FFF77BBD0A7802704A7842708A7876
:10525000CB7802EB032242800A794B7902EB0322DE
:1052600082808A79C97902EB0121C18070470246A8
:10527000002011B1C2F8B41270470220704710B577
:10528000D0F8B42202241AB11268904700B9002461
:10529000204610BD70B50E461E4D89780446297013
:1052A000012931D894F89C0202280BD003280FD092
:1052B00031462046FFF70BFC29782046BDE87040B8
:1052C000FFF7EEBBD9B10320616084F89C0209E0CE
:1052D00071B16068884212D0C1B22046FFF7E0FB8E
:1052E000297861602046FFF7CAFF02280CD006E04B
:1052F000022084F89C0220466160FFF7D1FB204623
:10530000BDE87040FFF706BC31462046BDE870405E
:10531000FFF7DDBBA200002010B5FFF779FF0020EA
:1053200010BD2DE9F0410A78002612F0600208D085
:10533000202A01D0402A70D1D0F8B4229268904738
:105340006DE04B78002201250A2B66D2DFE803F0DE
:10535000405D6557650805652C29FFF757FC5EE041
:1053600004468888D8B9C888C8B94888802816D221
:1053700000F07F0794F89C02032810D084F89E72F6
:1053800039462046FFF705FF2046FFF7C3FB1FB154
:10539000022084F89C0242E084F89C523FE02046C0
:1053A0003BE0FFF777FF3AE0CB88012B35D190F84F
:1053B0009C32012B04D0022B02D0032B2DD104E010
:1053C0008260012200F1080116E00122011D13E0B4
:1053D00090F89C22012A03D0022A01D0032A1CD172
:1053E000CA88022A19D1C560D0F8A41209B10321D4
:1053F000C160022200F10C01FFF77FFB0FE049883A
:1054000001290CD1C0F8A45211E090F89C32012B74
:1054100008D0022B06D0032B04D0FFF758FB3046F0
:10542000BDE8F08149880129F9D1C0F8A422FFF72D
:1054300071FBF4E72DE9F0410A4604461078002795
:10544000097910F060030AD0202B01D0402B50D1F5
:10545000D4F8B40211468368204698478FE0C0F321
:105460004110012806D05078D0B301282AD0032853
:105470003FD107E0D4F8B402114683682046BDE866
:10548000F041184794F89C02022802D0032872D1F8
:105490000AE071B380296ED02046FFF7B0FE80216C
:1054A0002046FFF7ACFE6AE0508838B931B1802958
:1054B00004D0D08810B92046FFF7A1FE2046FFF7A0
:1054C00029FB5CE094F89C020228E2D0032852D128
:1054D000508898BB4806F1D02046FFF70AFDEDE75B
:1054E000FFE794F89C020026022803D0032842D14B
:1054F00012E040E009B180293DD1080601F07F00AB
:1055000000EB800004EB800101D5143101E001F5CE
:10551000AA7102220E602AE0080601F00F0000EBDB
:10552000800004EB80000AD5806920B301F07F0081
:1055300000EB800004EB800514350BE01FE0D0F891
:105540005801C0B101F07F0000EB800004EB800542
:1055500005F5AA7541B1802906D02046FFF7B4FDB4
:1055600010B10120286000E02E600222294620466A
:10557000FFF7C3FA03E011462046FFF7A8FA3846C2
:10558000BDE8F08170B5054608780C4610F0600063
:1055900003D0202801D0402816D195F89C0201287C
:1055A00003D0022801D003280ED1207901280BD87E
:1055B000D5F8B402826828469047E188014306D1B5
:1055C0002846FFF7A7FA02E02846FFF780FA0020F6
:1055D00070BD704700487047640C00202DE9F0470B
:1055E0000C78002630F8243048F68F121340CA7821
:1055F000002A78D0012A7CD0022A02D0032A75D052
:10560000012648F28002134320F824300D7830F848
:10561000253048F68F7423402B43134320F8253060
:105620000D7B48F2C00948F6BF734CF2800A4BF676
:105630008F77EDB3CD7891F800C0022D30F82C5063
:105640007DD048F68F6805EA0805154320F82C50F0
:10565000B0F8505091F800C0054405EB0C15B1F8B6
:1056600008C02CF0010CA5F800C4B0F8505091F817
:1056700000C0054405EB0C15B1F80AC02CF0010C74
:10568000A5F808C44D78002D7ED00D7830F825C0DF
:105690005FEA4C4C07D530F825C00CEA040C4CEA04
:1056A0000A0C20F825C091F800C030F82C5000E01A
:1056B00022E06D0606D530F82C50254045EA090554
:1056C00020F82C50CC780D78012C30F8254004EAD5
:1056D00003047CD084F02003134320F82530C1E07C
:1056E00001E006E002E043F400738AE743F4C0639C
:1056F00087E743F4806384E74D784DB3B0F85050AA
:105700000F78054405EB0715CF8827F00107A5F8AA
:1057100000740F7830F827506D0606D530F8275002
:10572000254045EA090520F82750CC78012C07D000
:105730000C7830F82410194081F0200104E064E076
:105740000C7830F824101940114320F8241090E010
:10575000B0F850300D78034403EB0513CD8825F0E5
:105760000105A3F80854B0F850300D78034403EB5A
:105770000513B3F80C54C5F30905A3F80C540D69CF
:1057800003F20C433E2D00E045E00BD94FEA551CD7
:10579000ED0601D1ACF1010C1D884FF4004848EA38
:1057A0008C2C0BE035B34FEA550CED0701D00CF112
:1057B000010C1D884FF6FF7808EA8C2C45EA0C0591
:1057C0001D800D7830F825305B0408D500E046E0F8
:1057D00030F82530234043EA0A0320F825300978C1
:1057E00061B130F821303B4083F40053134320F87B
:1057F00021303EE01D8845F40045E1E7018839404D
:1058000081F440511143018033E0254048F2801873
:1058100045EA08051AE791F800C030F82C506D04ED
:1058200006D530F82C50254045EA0A0520F82C50C2
:1058300091F800C030F82C506D0606D530F82C5089
:10584000254045EA090520F82C500D7830F8254010
:105850003C4084F44054144320F8254070E714433E
:1058600020F825400B7830F823103940114320F8F8
:1058700023103046BDE8F087002070472DE9F04343
:1058800091F80C804F780A7848F6BF7C4BF68F79F8
:1058900048F2800348F2C0054CF2800648F68F7447
:1058A000B8F1000F28D0002F30F822704FEA474798
:1058B00048D0002F05DA30F822702740374320F80F
:1058C00022700A7830F822707F0605D530F82270F1
:1058D00027402F4320F822700D7830F825202240F1
:1058E000324320F825200C7830F8242002EA0C02FC
:1058F0001A4320F824201AE07FB130F8226076069F
:1059000005D530F8226026402E4320F822600A7820
:1059100030F8221001EA0C010EE030F822506D043C
:1059200005D530F822502540354320F822500A781A
:1059300030F8221001EA0901194320F82210002052
:10594000BDE8F083002F05DA30F822702740374396
:1059500020F822700A7830F82260760605D530F8F3
:10596000226026402E4320F822600E7830F8262050
:1059700022402A4320F826200C7830F8242002EA1E
:1059800009021A4320F82420C1E7002070470020B4
:105990007047012120F8401F002101808180018291
:1059A0000846704730F8401F21F43F410180002035
:1059B00070470020704730B50A7BB2BB4A7848F682
:1059C0008F7548F28004C2B10B7830F8232052065C
:1059D00007D530F823202A4048F2C0052A4320F892
:1059E0002320CA78012A20D00A7830F8221048F6FD
:1059F000BF73194081F0200114E00A7830F822309A
:105A00005B0407D530F822302B404CF280052B4345
:105A100020F822300A7830F822104BF68F731940A4
:105A200081F44051214320F82210002030BD10B5F0
:105A30004A780978002A48F2800330F8212005D0FE
:105A400048F6BF74224082F0100204E04BF68F74D7
:105A5000224082F480521A4320F82120002010BDF9
:105A60002DE9F0470D464B78097B04464FF00009BD
:105A700048F68F7248F2800A4FF400474FF6FF78DD
:105A8000012B09D000296FD0E87802286DD00128B9
:105A90006CD00120BDE8F087AE692869864200D944
:105AA000064691B1E97802291ED0286A801B286237
:105AB000287834F820104906B4F85010214401EB3E
:105AC000001073D5A0F80C6416E1B3B2EA88204642
:105AD000696900F06DFAB4F850002978204400EBB1
