:020000040800F2
:100000002017002075020008DF5600088945000807
:10001000DD5600087B1D00087F7700080000000007
:10002000000000000000000000000000755E0008F5
:10003000E51E0008000000005B5B0008655F00082B
:100040008F0200088F0200088F0200088F0200084C
:100050008F0200088F0200088F0200088F0200083C
:100060008F0200088F0200088F020008C91D0008D7
:100070008F0200088F0200088F0200088F0200081C
:100080008F0200088F0200088F020008FD7600082A
:10009000097700088F0200088F0200088F0200080D
:1000A0008F0200088F0200088F0200088F020008EC
:1000B0008F0200088F0200088F0200088F020008DC
:1000C0008F020008994500088D4500088F0200083E
:1000D0008F0200088F0200088F0200088F020008BC
:1000E0008F0200088F0200088F02000800F002F85B
:1000F00000F0B0F80AA090E8000C82448344AAF112
:100100000107DA4501D100F0A5F8AFF2090EBAE80F
:100110000F0013F0010F18BFFB1A43F0010318473B
:10012000D48E0000F48E00000A444FF0000C10F84A
:10013000013B13F0070408BF10F8014B1D1108BF65
:1001400010F8015B641E05D010F8016B641E01F805
:10015000016BF9D113F0080F1EBF10F8014BAD1C55
:100160000C1B09D16D1E58BF01F801CBFAD505E073
:1001700014F8016B01F8016B6D1EF9D59142D6D3CD
:10018000704700000023002400250026103A28BFF5
:1001900078C1FBD8520728BF30C148BF0B607047F9
:1001A0006E2900F0A482702900F00584662907F00A
:1001B000F983652907F0F683672907F0F38361293E
:1001C00007F0F28303681B0A28BF41F08001692908
:1001D00000F0F080642900F0ED80752900F0EA80DD
:1001E0006F2900F09283782900F0D183E92900F08B
:1001F0002D83E42900F02A83F52900F02783EF29D5
:1002000000F08F83F82900F0D0830368DB0928BF52
:1002100041F08001632900F0AE82732900F0B382BF
:10022000E32900F0D187F32900F0D687002070473A
:100230001FB501F023F804000020002107F09CFB0B
:10024000401C60600020002107F080FBE0601FBDC3
:1002500010B510BD00F0E4FF1146FFF7E9FF07F00D
:10026000BBFA01F0C1F803B4FFF7F2FF03BC01F0E1
:1002700009F900000948804709480047FEE7FEE702
:10028000FEE7FEE7FEE7FEE7FEE7FEE7FEE7FEE746
:1002900004480549054A064B70470000E55F000821
:1002A000ED0000082011002020170020201300205E
:1002B000201300207CB51D4616460C00009001D08E
:1002C0002044401E074B7B442A4669460190304635
:1002D00000F027FA05461CB10020694600F034FA08
:1002E00028467CBD890400000FB41CB5084B06AA43
:1002F0007B4469460090059800F013FA04460020FC
:10030000694600F021FA20461CBC5DF814FB000091
:100310005504000070B5044685690068C10601D522
:10032000302600E02026C00707D070BDD4E90121A7
:1003300030469047206A401C20626D1EF6D570BD85
:1003400070B5044685690078C00707D170BDD4E94F
:10035000012120209047206A401C20626D1EF6D5A6
:1003600070BD70B50C460546012A05D02878800678
:1003700000D5EA69002302E0012305E05B1C9342FB
:1003800002D2E05C0028F9D1A869E618C01AA86179
:10039000286A184428622846FFF7BCFF04E0D5E924
:1003A000012114F8010B9047B442F8D32846FFF717
:1003B000C7FF70BD2DE9F04106460024106875297D
:1003C000314616A510D000F027F9002802DA404285
:1003D00013A507E031688A0701D512A502E0490795
:1003E00004D511A5012401E000F01FF900210A2223
:1003F00006F1240709E0B0FBF2FCB0FBF2F302FBCC
:100400001C00303078541846491C0028F3D123468C
:100410002A463046BDE8F04100F010B90000000067
:100420002D0000002B000000200000002DE9F05FEF
:10043000894604464FF0000ADFF874B1FB44C0F867
:1004400020A02046E1688847002874D0252806D0DF
:10045000D4E901219047206A401C2062F1E7002680
:100460005F462046E16888472028054607DB312D96
:1004700005D2781910F8200C08B10643F1E7B0074F
:1004800001D526F00406C4F81CA00027C4F818A063
:100490002A2D09D0284607F097F938B304EB8708CE
:1004A000303DC8F8185019E059F8041B204604EBF9
:1004B00087029161E1688847012F054618D1E069FC
:1004C000002820DA26F020061DE0D8F8180000EBFE
:1004D000800005EB40003038C8F818002046E1687D
:1004E0008847054607F070F90028EED1012F0AD0A1
:1004F0002E2D08D12046E16888477F1C0546022F33
:1005000046F02006C4DBA069002803DA404246F02A
:100510000106A061F00701D026F010066C2D0BD06B
:10052000682D09D04C2D39D06A2D35D0742D35D099
:100530007A2D33D016E038E0E1682F462046884710
:10054000B842054609D16C2F26D04FF48060E1688F
:10055000064320468847054604E06C2F1AD04FF426
:10056000807006430DB3A5F14100192802D820354B
:1005700046F400664A462946204626604E46FFF766
:100580000FFE80B101280BD0F61D26F0070000F108
:10059000080956E74020E4E78020D8E70020D6E7A6
:1005A00006F104094DE7284652E7206ABDE8F09FAE
:1005B000B68A000002F0FF0343EA032242EA024245
:1005C00000F006BA4FF0000200B513469446964676
:1005D000203922BFA0E80C50A0E80C50B1F1200156
:1005E000BFF4F7AF090728BFA0E80C5048BF0CC004
:1005F0005DF804EB890028BF40F8042B08BF704762
:1006000048BF20F8022B11F0804F18BF00F8012BD3
:10061000704770477047704709684A0501D540B276
:100620007047C905FCD500B2704709684A0501D575
:10063000C0B27047C905FCD580B270472DE9F047BC
:100640000D4699469246044600F124080168880642
:1006500004D5E06921F01001216000E00120A842EA
:1006600001DD471B00E00027A1697A1902EB0900B0
:10067000081AA0612078C00602D42046FFF74AFE7F
:10068000002608E0D4E901211AF806009047206A04
:10069000401C761C20624E45F4DB2078C0060AD54B
:1006A0002046FFF737FE06E0D4E9012130209047CD
:1006B000206A401C2062381EA7F10107F4DC07E025
:1006C000D4E9012118F805009047206A401C2062F7
:1006D000281EA5F10105F3DC2046FFF731FE207846
:1006E000000602D50220BDE8F0870120FBE7116873
:1006F0000268006A530501D508700AE0D30501D5E8
:10070000088006E0130603D5C217C1E9000200E025
:10071000086001207047000001694A1C02610878E6
:10072000704700B58FB0CDE9013100210591054931
:100730007944CDE9031011466846FFF777FE0FB004
:1007400000BD0000E5FFFFFF0A6802F8010B0A6028
:100750007047D1E900239A4202D2531C0B601070FB
:10076000704710B5436913B1AFF3008001E0FFF7A4
:10077000F8FD012010BD127800F124010A7000225A
:100780004A700122EDE711684FF0FF32E9E70000FF
:100790002DE9FF5F15468A460446DFF8AC80F84431
:1007A0000027D8E900103E46CDE9001010E03AF8E5
:1007B00016106A4602A800F013FD411C07D02178EC
:1007C000890603D5E269391891420DD80744761C91
:1007D0002078800602D5E069B84205DDAE42E6DB4E
:1007E0003AF816000028E2D1A069C01BA06120469B
:1007F000FFF790FDD8E90010CDE90010002017E0C8
:100800003AF818106A4602A800F0EAFCB0F1FF3F7F
:1008100081460BD000250DF1080B05E0D4E901213C
:100820001BF8050090476D1C4D45F7D308F10100FA
:10083000B0428046E4DB206A384420622046FFF75D
:100840007FFDBDE8FF9F0000668700002DE9F041B5
:100850008046D21D22F007020025D2E90002F529C8
:1008600015A614D0011E72F1000106DA0023D0EBA8
:10087000030063EB020211A608E0D8F800108B0712
:1008800001D50FA602E0490701D50EA601251146A4
:10089000002408F1240704E000F0BAF830323A5599
:1008A000641C50EA0102F7D12B46324621464046ED
:1008B000BDE8F041FFF7C2BE000000002D000000BF
:1008C0002B0000002000000030B4002100F12404BF
:1008D00008E002F00705D208303542EA4372DB082F
:1008E0006554491C52EA0305F3D10468002310A2A1
:1008F000250707D5A40600D421B1C46901230DA2A0
:10090000641EC46130BCFFF799BE10B50446214691
:100910001068FFF78AFE02462046BDE8104000231B
:10092000D2E7D21D22F00701D1E90023CCE7000075
:100930000000000030000000F0B40D4601880905F9
:1009400002D5214C7C4402E01F4C7C440E34002133
:1009500000F1240608E002F00F071209E75D42EA01
:1009600003721B097754491C52EA0307F3D102783A
:100970000023120704D5702D06D009B102231134CB
:100980002246F0BCFFF75ABE01231034F8E770B5D9
:1009900004460D4621461068FFF747FE02462946E9
:1009A0002046BDE870400023C6E7D21D22F00703B1
:1009B000D3E90023C0E70368126843F02003036013
:1009C0000823C3610023B7E7C88500004FF0000289
:1009D0000429C0F0128010F0030C3FF4F5ADCCF107
:1009E000040CBCF1020F18BF00F8012BA8BF20F8BF
:1009F000022BA1EB0C01FFF7E7BD5FEAC17C24BF2E
:100A000000F8012B00F8012B48BF00F8012B7047BC
:100A100030B5B0F10A024FEA900E71F100034EEAD0
:100A2000817EB0EB0E0061EB91014FEA101E4EEAA1
:100A3000017E10EB0E0041EB11114FEA102E4EEA31
:100A4000016E10EB0E0041EB11214FEA104E4EEA01
:100A5000014E10EB0E0041EB1141401841F1000135
:100A60004FEAD00040EA41704FEAD10110EB800517
:100A70004FEA810444EA907444EB01046D1944EB9D
:100A80000404521BA3414FF0000348BF0A3200D5B3
:100A900030BD401C41F1000130BD70472DE9FF4FD2
:100AA0000C461E464FF0FF378BB0D2E90001DDF84F
:100AB00060800A908A46C1F30A5505B93D46002177
:100AC00008464FF00000BAF1000F00F4400005DACC
:100AD00000EB80004FF4400101EA50004FEA9059CA
:100AE000B9F1010F00DDB9460A9850EA4A000ED06C
:100AF00044F61050A5F2FF3545432F14B8F1000F0E
:100B00001ED07542291E1EDDC9F100021CE0B8F19D
:100B1000010F4FF0000001D0302103E0F24305E067
:100B20002154401CB042FBDB3046002200212154FE
:100B30000B99C1F80880C1E900200FB0BDE8F08F23
:100B4000BD1B6D1CDEE74A4600DA694206A800F0CC
:100B5000D9FB06AB93E8070003AB83E807005046D8
:100B60000A9900F096FC8DE80700A0F500501F38A8
:100B700000900398002D0ADD42F21F014A46084406
:100B8000002303A90390684600F0FFFE09E0A0F5EA
:100B900000504A461F38002303A90390684600F01E
:100BA00009FF8DE807000004000C03D04FF0FF3070
:100BB000410800E01046B8F1000F03D00022009277
:100BC00015461EE0751E05D4FFF722FF3032625530
:100BD0006D1EF9D5B3460122084302D000227F1CC6
:100BE00004E02078302801D100227F1E002A0997D6
:100BF00084D01DE0112D07DAFFF70AFF303262556D
:100C00006D1C50EA0102F5D1084302D00098C8B12A
:100C10000EE00021681E05E0235C625C63542254F0
:100C2000401E491C8142F7DBAB46A81B401E0990C1
:100C3000002004F80B000B98099AC0F80880C0E95E
:100C4000002B7AE711264FF0000857E72DE9F04F07
:100C500088460446D21D22F0070191B0D1E9000177
:100C6000CDE90A0106F08CFD02460B98C00F01D0B9
:100C70002D2007E02068810701D52B2002E02021EC
:100C800001EAC000032A099001D0072A05DB0346C8
:100C90004146204600F0F6FA0BE12078800601D5A7
:100CA000E06900E00620B8F1650F814606D0B8F192
:100CB000660F18D0B8F1670F70D131E00020B9F19C
:100CC000110F009001DB112301E009F101030AAAD1
:100CD00001A90CA8FFF7E2FEDDE90C70002609F17E
:100CE0000105834647E001204B4600904FF0004746
:100CF0000AAA01A90CA8FFF7D1FEDDE90DB00C99F5
:100D00005D46002610B909F101000D18B9EB050088
:100D100003D4C0F1FF3609F10105A5EB09002BE072
:100D2000B9F1010F01DA4FF001090020B9F1110FFB
:100D30000090484601DD112300E003460AAA01A9FC
:100D40000CA8FFF7ABFEDDE90C704D46002683468C
:100D5000207800070AD4AB4500DA5D4601A8012DD2
:100D600004DD411911F8011C302907D04F4502DA82
:100D700017F1040F04DA012082460FE06D1EEEE742
:100D8000002F02DCED1B3E4403E0781CA84200DD8E
:100D90007D1CB81B00F1010A4FF0004720780007C6
:100DA00003D4AA4501DB4FF0FF3A0021B7F1004F11
:100DB0000DF143088DF8431024D002202B23002F7F
:100DC00001DA7F422D230A21021EA0F1010000DC7E
:100DD0005FB197FBF1FC97FBF1F201FB1C7C17461E
:100DE0000CF1300C08F801CDEEE7A8F1010003701A
:100DF0002188090501D5452100E06521A0F1010800
:100E000000F8011C09980FA9A1EB0807FF1D00B10C
:100E10000120411901EBEA70A1693844081A401E0B
:100E2000A0612078C00602D42046FFF773FA099823
:100E300028B1D4E901219047206A401C2062207823
:100E4000C00622D52046FFF765FA1EE0002E04DB1F
:100E5000B34502DD01A8805D00E03020D4E9012126
:100E60009047206A401C2062761CAAF101005FEACC
:100E7000000A0AD100F002FAC0680168405CD4E9B7
:100E800001219047206A401C2062281EA5F101051F
:100E9000DCDC07E0D4E9012118F8010B9047206A57
:100EA000401C2062381EA7F10107F3DC2046FFF743
:100EB00047FA032011B041E62DE9F04F04460D46F4
:100EC000D21D22F0070089B0D0E900974846394684
:100ED00006F056FC0246F80F01D02D2307E02068EB
:100EE000810701D52B2302E0202101EAC0038DF800
:100EF00020300BB1012000E00020032A824601D0FF
:100F0000072A04DB2946204600F0BCF93FE120789F
:100F1000800601D40D2500E0E569C7F30A560D2DC2
:100F200049DA00214FEA175B08464FF00000002F16
:100F300000F4400007DA00EB80004FF4400100EBC2
:100F4000D07001EA60008115012901DD4FF0FF3109
:100F500000224FEA850CBCF1180F06D31346ACF102
:100F600018004FF08052C24003E04FF4801323FA80
:100F70000CF30CF10C0CBCF1200F04D3ACF1200CE1
:100F800009FA0CF001E007FA0CF000294FF00048D4
:100F900001DD18B90FE00ED140450CD319EB020961
:100FA0005F4121B9404502D19F4329EA0209BBEBC9
:100FB000175F00D0761C2088000502D57B48784456
:100FC00002E07A487844193808AA302302F80A3037
:100FD000037C0AF10101002E0AF1020A53546A4609
:100FE00002DC4FF0300101E04FF031014FF0010819
:100FF0008DF8001002D0A6F2FF3603E059EA47014F
:1010000000D06B4E002D02DC2178090704D54FF08B
:1010100002082E218DF80110C44600210BE0C7F311
:1010200003433F01C35C491C6D1E02F808300529CB
:1010300008F1010801DA002DF1DC00210CE000EBE1
:101040001973491C1B786D1E082902F808304FEAF5
:10105000091908F1010801DA002DF0DC21688B067E
:1010600002D516E0A8F10108E04505DD02EB080312
:1010700013F8013C302BF5D0B8F1000F09DD02EB7D
:10108000080313F8013C2E2B03D1090701D4A8F162
:101090000108002D05DD3E2102F808106D1E08F143
:1010A0000108407C002E02F8080008F1010804DA6B
:1010B0002D20764202F8080002E02B2002F80800FA
:1010C0000A214FF47A70864208F101080BDB96FB87
:1010D000F0F3303302F8083096FBF0F308F1010822
:1010E00000FB136601E0642E0CDB642096FBF0F33A
:1010F000303302F8083096FBF0F308F1010800FBEA
:10110000136601E00A2E06DB96FBF1F0303002F8A0
:10111000080008F1010896FBF1F001FB1060303087
:1011200002F80800A16908F1010808EB050202EBCA
:101130000A00081AA0612078C00602D42046FFF7F2
:10114000E9F8216A08AE01EB0A00206204E0D4E964
:10115000012116F8010B9047BAF1010AF7D2207865
:10116000C00602D52046FFF7D5F86E4609E016F80E
:10117000010B3E280FD0D4E901219047206A401C82
:101180002062B8F10108F2D22046FFF7D9F809B081
:101190000320BDE8F08F206A2844206203E0D4E9F0
:1011A0000121302090476D1EEBD3F8E7897F0000C6
:1011B00002FCFFFF10B5436913B1AFF3008001E0FB
:1011C000FFF7E6FA012010BD128800F124018284A5
:1011D0000022C2840122EDE711684FF0FF32E9E7F7
:1011E00070B516460C46054600F040F8036893F8C3
:1011F0000101012806D0FF2C0FD8185D68B101202D
:101200002C7070BDD3F807013246214603F2071354
:1012100003442846BDE8704018474FF0FF3070BDCA
:10122000754600F0EBF8AE4605006946534620F0DF
:101230000700854618B020B5FFF72AF8BDE8204022
:101240004FF000064FF000074FF000084FF0000B82
:1012500021F00701AC46ACE8C009ACE8C009ACE835
:10126000C009ACE8C0098D467047000010B500F019
:1012700005F8001D10BD00BF016700000048704761
:10128000DC1000202DE9F0411F46044603260168CA
:10129000072A01F4006004DB08B116A505E016A5D5
:1012A00003E008B115A500E015A521F010002060AD
:1012B000A069C01EA0610FB1401EA0612046FFF7CB
:1012C00029F84FB1D4E9012138469047206A401CE3
:1012D0002062C01C206206E0206AFAE7D4E90121FE
:1012E00015F8010B9047761EF8D22046FFF728F834
:1012F000BDE8F0814E414E006E616E00494E4600E1
:10130000696E66002DE9F047814616468AB0354879
:1013100078440DC88DE80D0032487844801C03AC39
:101320000DC884E80D0041F69B300844372190FB3E
:10133000F1F290FBF1F5A5F1800501FB12041B3CD5
:1013400002D56442012000E00020DFF898A080462A
:101350000027FA44AAF1BE0A0EE0E0070AD032469E
:10136000684607EB470101230AEB810100F022FBED
:101370008DE8070064107F1C002CEED1194F7F44CC
:10138000AE3F19E0E80715D007EB04100DF1180A7D
:1013900090E80E008AE80E00C068F04201D198196A
:1013A00008903246012306A903A800F003FB03AB13
:1013B00083E807006D10641C002DE3D14FF001039A
:1013C00032466946B8F1000F03A802D000F0DDFAFA
:1013D00001E000F0EFFAC9E90001C9F808200AB0FD
:1013E000BDE8F087C87C000010B50446AFF300806C
:1013F0002046BDE81040FEF736BF000000487047A9
:10140000BC1000204FF0013C50F8042B51F8043B75
:101410009A4221D1A2EB0C03934313EACC1317D1C8
:1014200050F8042B51F8043B9A4215D1A2EB0C035F
:10143000934313EACC130BD150F8042B51F8043B1F
:101440009A4209D1A2EB0C03934313EACC13DBD0ED
:101450004FF00000704700BFD01A01BAB1FA81F115
:1014600001F0180122FA01F0CB40C1F12001DBB2FA
:10147000C0B2C01A2CFA01F3D11A914311EAC31178
:10148000E6D1704701491820ABBEFEE726000200F6
:1014900070475FEA400C08BF91F0000F4FEA8C23C1
:1014A0004FEAC12243EA51514FEA1C5018BF00F5E0
:1014B000F0404FEA300018BF41F000415FEA6C5C39
:1014C00000F02980BCF1FF3F08BF40F0804070472A
:1014D000130C06BF12044FF0100C4FF0000C130E4B
:1014E00004BF12020CF1080C130F04BF12010CF11F
:1014F000040C930F04BF92000CF1020CD30F04BF35
:1015000052000CF1010C11464FF00002A0F11F0037
:10151000A0EB0C00704711F0004F08BF704731F08E
:1015200000413FF4D5AF0B0C06BF09044FF0100C7F
:101530004FF0000C0B0E04BF09020CF1080C0B0F4E
:1015400004BF09010CF1040C8B0F04BF89000CF1DE
:10155000020CCB0F04BF49000CF1010CCCF12003AD
:10156000A0EB0C0022FA03F302FA0CF241EA0301A9
:1015700000F10100704720F07F4C80EA030023F067
:101580007F47ACEB070303F57C5300F0004003F109
:10159000FF032DE980494FEA154B09B44FEA144384
:1015A00025EA0B4E24EA03480FF2042606EB132724
:1015B00049083E785FEA320203FB0667C7F5000779
:1015C00007FB06F64FEA54374FEAD64606F1020605
:1015D00007FB066CCCF1005C4FEA1C472CEA074C79
:1015E00007FB06F40CFB06F504EB15464FEA9616CE
:1015F00034BF00204FF000404FEAD13706FB07FC14
:101600004FEA1C4C0CFB0BF7D21B03FB0CF761EBF6
:1016100007010CFB0EF7B0EB074072EB17420CFB17
:1016200008F734BFA2EB0742B2EB074261EB174168
:101630004FEA0C444FEA910706FB07FC4FEA1C4CAB
:101640000CFB0BF7B0EBC74072EB573203FB0CF708
:1016500034BFA2EBC742B2EBC74261EB57310CFB80
:101660000EF7B0EBC70072EB57720CFB08F734BFF4
:10167000A2EBC702B2EBC70261EB5771039F4FEABF
:10168000816141EA921104EBCC044FEAD1374FEA71
:10169000826206FB07FC42EA90124FEA80604FEA42
:1016A0001C4C0CFB0BF7D21B03FB0CF761EB070187
:1016B0000CFB0EF7B0EB074072EB17420CFB08F780
:1016C00034BFA2EB0742B2EB074261EB17414FEA8E
:1016D0008C554FEA910704EB9C2406FB07FC4FEA6C
:1016E0001C4C0CFB0BF7B0EBC74072EB573203FB03
:1016F0000CF734BFA2EBC742B2EBC74261EB5731E4
:101700000CFB0EF7B0EBC70072EB57720CFB08F73F
:1017100034BFA2EBC702B2EBC70261EB577115EB06
:101720004C254FEA816141EA92114FEA82624FEA09
:10173000D13742EA901206FB07FC44F100044FEA5D
:1017400080604FEA1C4C0CFB0BF7D21B03FB0CF721
:1017500061EB07010CFB0EF7B0EB074072EB174291
:101760000CFB08F734BFA2EB0742B2EB074261EB78
:10177000174115EB1C154FEA813141EA92414FEABE
:10178000823242EA90424FEA80304FEA0C7644F1CE
:10179000000448EA03434EEA0B484FF0000EB2EB58
:1017A000080C71EB030724BF624639464EEB0E0E60
:1017B0004FF0000B0018524149414BEB0B0BB2EBC1
:1017C000080C71EB03077BF1000B24BF624639461E
:1017D0004EEB0E0E4FF0000B0018524149414BEBFF
:1017E0000B0BB2EB080C71EB03077BF1000B24BF72
:1017F000624639464EEB0E0E51EA020718BF46F01C
:10180000010616EB0E7655F1000254F1000103D5E6
:10181000BDE88901BDE80088BDE88901BDE8004850
:10182000B619524141EB0101A3F1010370478080D9
:101830007F7E7D7C7B7A797877767675747372712A
:1018400071706F6E6E6D6C6C6B6A6A6968686766E2
:1018500066656464636362616160605F5F5E5E5D74
:101860005D5C5C5B5B5A5A595958585757565655E8
:1018700055555454535352525251515050504F4F4A
:101880004F4E4E4D4D4D4C4C4C4B4B4B4A4A4A499A
:1018900049494848484747474746464645454544DD
:1018A0004444444343434342424242414141002B6A
:1018B0009C4630D477002BD01CB54FEA370703B4D1
:1018C0004FF010004FF01001BAF1000F06D0BCF13C
:1018D000000FDCBF40F0080040F008014FF00000AE
:1018E0000FBCBDE810400BF1010BBBF1010F08BFAD
:1018F0005FEA170722BF12F1010211F101014FF057
:10190000004143F1000300F0004043EA000070474B
:10191000F9D35708D0E746EA064613F1400F4FEADD
:1019200016461FDD13F1200FDFBF16430A460021C4
:1019300020335B42BED0C3F1200746EA064602FAD6
:1019400007F74FEA164646EA0706C3F1200722FAD0
:1019500003F201FA07F721FA03F14FF0000342EA1C
:101960000702A7E746EA020646EA06464FEA164697
:1019700046EA0106BCBF46EA0646360C4FF00003B5
:101980004FF000024FF0000194E72DE9804C9A4699
:10199000934670B491E8380007C831EA400C48BF5C
:1019A00034EA430C03D5FFF7E6FDFFF780FFF0BCF8
:1019B000BDE8008C2DE9804C9A46934670B491E8BE
:1019C000380007C810F0804F08BF13F0804F03D1D4
:1019D00000F005F8FFF76BFFF0BCBDE8008C20F0CD
:1019E0007F4780EA030023F07F4C07EB0C03A3F54D
:1019F0007C5300F00040A3F1FE0392F0000F00F0D2
:101A0000B38095F0000F00F077802DE901494FEA8F
:101A100011404FEA144621EA004800FB06FC24EA84
:101A2000064708FB06F607FB08F800FB07F718EB6C
:101A300006484CEB164C4FEA124B18EB07484FEA9E
:101A400015464CEB174022EA0B4E0BFB06FC25EA31
:101A500006470EFB06F607FB0EFE0BFB07F71EEB19
:101A6000064E4CEB164C4FF000061EEB074E4CEBAF
:101A7000174B18EB0B0840F1000018EB0E0B58EB5E
:101A8000000840F100008F1A4FF000013CBFC9432D
:101A9000661B14BFB5EB040C00213CBFC943F61B09
:101AA0004FEA17444EEA8E0E27EA04454FEA1C47D8
:101AB00004FB07622CEA074C05FB07F70CFB05F655
:101AC00004FB0CFC16EB074642EB174216EB0C46E8
:101AD00042EB1C421BEB060658EB0202414146EA70
:101AE0009E0601D5BDE80189B619524141EB0101BD
:101AF000A3F10103BDE801894FEA14454FEA1147FC
:101B000024EA054621EA074C05FB07F406FB07F724
:101B10000CFB06F105FB0CFC11EB074144EB1744F1
:101B20004FEA124711EB0C4144EB1C4422EA074CEC
:101B300005FB07F206FB07F70CFB06F605FB0CFCA2
:101B400016EB074642EB174216EB0C4642EB1C45E0
:101B50006A1854F1000148BF7047B619524141EB71
:101B60000101A3F10103704795F0000F37D04FEA50
:101B700011424FEA144721EA024624EA074C02FBCD
:101B800007F106FB07F70CFB06F402FB0CFC14EB59
:101B9000074441EB17414FEA154714EB0C4441EB66
:101BA0001C4125EA074C02FB07F506FB07F70CFB77
:101BB00006F602FB0CFC16EB074645EB174516EB49
:101BC0000C4645EB1C42121951F1000148BF704709
:101BD000B619524141EB0101A3F1010370474FEAED
:101BE00014454FEA114724EA054621EA074C05FB54
:101BF00007F106FB07F70CFB06F24FF0000605FBAA
:101C00000CFC12EB074241EB174112EB0C4251EB7B
:101C10001C4148BF7047921841EB0101A3F1010339
:101C20007047000070B5044600688168C943C90761
:101C300017D1816821F00101816000F00BFE05469B
:101C40000AE000BF00F006FE401B022804D920680D
:101C50008068C043C00706D020688068C043C007C2
:101C6000F0D0002070BDA06A40F01000A062E06AD1
:101C700040F00100E062012070BD10B50146406AED
:101C8000826A12F0500F05D0006A026BBDE8104066
:101C900008461047816A41F40071816201688968D1
:101CA000C1F3424107290CD1017B51B9816A21F46A
:101CB00080718162816AC90403D4816A41F00101A3
:101CC000816200F0FDF910BD10B5406A816A41F0F3
:101CD00040018162C16A41F00401C16200F0F2F981
:101CE00010BD10B5406A00F0ECF910BDF8B5002643
:101CF0000446009600688168C943C9072DD08168F1
:101D000041F001018160164816490068B0FBF1F00E
:101D100000E0401E00900028FBD100F09BFD05462E
:101D200016E000BF00F096FD401B022810D9206885
:101D30008068C043C0070BD0A06A40F01000A062CA
:101D4000E06A40F00100E06284F824600120F8BD00
:101D500020688068C043C007E4D10020F8BD0000BF
:101D6000A800002040420F0000F00F01000900EB26
:101D7000800001EB4000C0B27047FEE700207047D2
:101D800000207047002070470D4910B50B880D49A1
:101D900000200A8812B14B80088010BD4A88934207
:101DA00005D99C1A502C02DD0120503206E09342E6
:101DB000F3D2D31A502BF0DD0220503A4A8010BDE6
:101DC0007C03002040000020014800F027BB0000F9
:101DD0000C04002030B590F840500124AC40C56B95
:101DE0006C60046863604368102B036803D09960DB
:101DF0000068C26030BD9A600068C16030BD0000FC
:101E00000149086070470000C400002090F90410E8
:101E10008AB290F9051090F906008BB200F5FA60CD
:101E200080B2032B03D20146401E80B200E0811E27
:101E30001144C3EBC30202EB03120923B2FBF3F21A
:101E400089B211446422B0FBF2F201EB9001891ACD
:101E50004FF4C872B0FBF2F008440721001D90FB5C
:101E6000F1F201FB1200C0B2704700007FB50446DA
:101E70001B4E002064258DF80C000095012303AA59
:101E8000D021306801F010F90095072301AAD02174
:101E9000306800F0E1FF9DF80400FFF765FF207057
:101EA0009DF80500FFF760FF60709DF80600FFF7E2
:101EB0005BFFA0709DF80700FFF756FFE0709DF8EC
:101EC0000800FFF751FF20719DF80900FFF74CFF54
:101ED00060719DF80A00FFF747FFA0717FBD000009
:101EE000C4000020704772B6FEE70000F8B5002578
:101EF0000446009590F8240001280BD0012084F8B6
:101F000024002046FFF78EFE2046FFF7EFFE060076
:101F100002D050E00220F8BDA06A20F4885040F0C2
:101F20000200A062022001F0F1FE25490968B1FB20
:101F3000F0F0400000E0401E00900028FBD1206837
:101F4000816841F00801816000F084FC074608E0E8
:101F500000F080FCC01B0A2803D9206880680007B5
:101F600015D4206880680007F2D42068816841F0A9
:101F70000401816000F06EFC074612E000F06AFC8C
:101F8000C01B0A280DD920688068400709D5A06ABF
:101F900020F0020040F01000A06284F824500120DC
:101FA000F8BD206880684007E8D4A06A20F00200ED
:101FB00040F00100A06284F824503046F8BD0000D3
:101FC000A8000020F8B50024009490F824202546AD
:101FD000012A12D0012280F824204A681F23072AF0
:101FE0000DD20668776B521E02EB820293409F432C
:101FF0000B6893401F43776319E00220F8BD066821
:102000000D2A0AD2376BD21F02EB820293409F4304
:102010000B6893401F43376309E0F76A0D3A02EB00
:10202000820293409F430B6893401F43F7620A6804
:10203000072306680A2A0AD3F7680A3A02EB420223
:1020400093409F438B6893401F43F76008E03769D4
:1020500002EB420293409F438B6893401F433761DA
:102060000A68102A01D0112A20D1124B02689A4224
:1020700017D193681B0219D4936843F4000393604B
:102080000968102912D10C490C4A0968B1FBF2F118
:1020900001EB8101490000E0491E00910029FBD1BC
:1020A00004E0816A41F020018162012480F824501B
:1020B0002046F8BD00240140A800002040420F0047
:1020C00070477047704700002DE9F0414FF000075E
:1020D00004003D467ED0A06A002628B9E66284F856
:1020E0002460204600F07EF82046FFF79BFDA16AA1
:1020F000C90600D420B1A06A40F01000A06269E0D7
:10210000A16A21F4885141F00201A1626268E1698B
:10211000237B0A4347EA43010A43A1684FF48077CF
:10212000B94209D0012907D05FF0000194F814C02A
:10213000BCF1010F02D00AE03946F7E7F3B1A36A18
:1021400043F02003A362E36A43F00103E3622368E0
:10215000D3F804C02CF4694C4CEA010CC3F804C059
:1021600021688B68DFF870C003EA0C0313438B60AF
:10217000A168B9420BD0012909D00CE0DFF85CC09E
:10218000A3690CEB43330B4343F40061DFE7218A7F
:102190000D05A5F580152168CB6A23F470032B4348
:1021A000CB62216889680E4B1940914208D1E662E2
:1021B000A16A21F0020141F00101A162BDE8F081B4
:1021C000A06A20F0020040F01000A062E06A40F037
:1021D0000100E0620120F1E7FDF7E1FF00E0FFFF11
:1021E000FE0E1FFF70B586B00025064600950195CE
:1021F000029503950068194988422DD118498869CC
:1022000040F400708861886900F400700490886967
:1022100040F0040088618869694600F00400049079
:1022200080200090032001900E4800F019FA0F4C16
:102230000D48C4E900058015A560C4E9035080007D
:1022400060612020C4E90605204600F091F908B13C
:10225000FFF749FE3462666206B070BD002401409B
:102260000010024000080140080002400C04002059
:102270002DE9F047894604463B4900683B4F0E1D57
:102280009046884201D0B84207D1306810F4702FD0
:1022900003D001252846BDE8F08794F824000128E2
:1022A0000CD0012084F824002046FFF71FFD050014
:1022B0004FF0000004D084F82400EBE70220EAE7A6
:1022C000A16A40F60162914341F48071A1622168E4
:1022D000B94218D1326812F4702F14D0A16A41F4B7
:1022E0008011A1623168490505D5A16A21F4005128
:1022F00041F48051A162A16AC9040AD5E16A21F0C2
:102300000601E16206E0A26A22F48012A262496834
:10231000E9E7E06284F82400216A15488862216AAE
:102320001448C862216A1448086321686FF00200EB
:1023300008602068816841F48071816021684346AB
:102340004A464C31206A00F041F920688168C1F3A7
:1023500042410729816803D041F48011816099E7E7
:1023600041F4A001FAE700000024014000280140E8
:102370007B1C0008E31C0008C91C000810B590F87D
:1023800021100024022903D00421816301243DE0AF
:1023900001680A6822F00E020A6001680A6822F0E9
:1023A00001020A601A4A0168914201D1012121E02B
:1023B000174A1432914201D110211BE0144A2832ED
:1023C000914201D1891515E0114A3C32914201D167
:1023D00089140FE00E4A5032914202D14FF48031FD
:1023E00008E00B4A6432914202D14FF4801101E0BF
:1023F0004FF08071064A083A5160012180F821109F
:10240000002180F82010416B01B18847204610BDA3
:102410000800024090F82100704700002DE9F05FAD
:10242000C16B0C6801680B68D0F840C0042202FA46
:102430000CF2494DDFF824A1494E4A4FDFF828B18C
:10244000DFF828E122422CD05A072AD50A689206E2
:1024500003D40A6822F004020A600168A94201D18B
:10246000042219E0514501D1402215E0B14202D1C8
:102470004FF4806210E0B94202D14FF480420BE089
:10248000594502D14FF4802206E0714502D14FF444
:10249000800201E04FF080622F4908394A60C16A2A
:1024A0003BE04FF0020808FA0CF818EA040F4FF06E
:1024B00000094FF0010235D05FEA837832D50B680E
:1024C0009B0605D40B6823F00A030B6080F82120DB
:1024D0000168A94201D1022219E0514501D120220F
:1024E00015E0B14202D14FF4007210E0B94202D1BE
:1024F0004FF400520BE0594502D14FF4003206E090
:10250000714502D14FF4001201E04FF00072124900
:1025100008394A6080F82090816A00291AD0BDE805
:10252000F05F0847082505FA0CF5254212D01B0775
:1025300010D50B6823F00E030B6090F84010C36BAE
:1025400002FA01F15960826380F8212080F820901E
:10255000016BE2E7BDE8F09F080002401C0002406A
:102560003000024044000240580002406C0002402B
:1025700030B528B308C8134914221944B1FBF2F14D
:102580008900C16310498163022141771A6843F6CB
:10259000F0718A43D0E900142143D0E902452C436D
:1025A0002143046921434469214384692143114340
:1025B000196000214163012242770177084630BD4E
:1025C000012030BDF8FFFDBF0000024070B5044699
:1025D00090F82000002501280CD0012084F820006C
:1025E00094F821600020012E06D084F820000225F6
:1025F000284670BD022070BD022684F82160A063C9
:102600002068066826F0010606602046FFF7E2FB18
:10261000E06A00282068016802D041F00E0106E05F
:1026200021F0040101602068016841F00A010160A5
:102630002068016841F001010160D9E770B50446E6
:1026400000F008F90546601C02D0044800780444F4
:1026500000F000F9401BA042FAD370BD9C0000209E
:102660002DE9F84FDFF8B8910024A9F1040B2346B7
:102670000F2709F1040AABF1040EC9E00125A540BA
:102680002A40AA427DD1674ED1F804C0ACEB0608BF
:10269000B44532D014DCBCF1030F3AD009DCBCF1F4
:1026A000000F2AD0BCF1010F1CD0BCF1020F31D1B8
:1026B0001DE0BCF1110F17D0BCF1120F2AD119E0A7
:1026C000B8F5881F19D006DCB8F5803F15D0B8F5ED
:1026D000801F1FD111E0B8F5001F0ED0B8F5041F00
:1026E00018D10AE0CB6815E0CB681B1D12E0CB685F
:1026F00008330FE0CB680C330CE08B682BB1012B57
:102700004FF0080303D0456104E0042302E00561B3
:1027100000E00023FF2A01D8064601E000F104068C
:102720004FEA840501D9A5F12005D6F8008007FA03
:1027300005FC28EA0C0803FA05F548EA0508C6F87E
:1027400000804D68ED0062D5374DAE6946F0010658
:10275000AE61AD6924F0030605F001050095334D27
:1027600006EB050CDCF80850A607360F07FA06F84A
:1027700025EA0805DFF8B880404503D14FF000088E
:1027800017E044E0DFF8AC80404502D14FF001088B
:102790000FE0DFF8A480404502D14FF0020808E0C6
:1027A000DFF89880404502D14FF0030801E04FF078
:1027B000040808FA06F848EA0508CCF808804D68CD
:1027C000D9F80060ED024D4601D5164300E096436E
:1027D0002E604D68DAF80060AD02554601D516430B
:1027E00000E096432E604D68DBF80060AD035D4667
:1027F00001D5164300E096432E604D68DEF8006078
:10280000ED03754601D5164300E096432E60641C27
:102810000D682A46E5407FF431AFBDE8F88F00002F
:1028200008040140000011100010024000000140A7
:1028300000080140000C014000100140001401405C
:102840008068084000D0012070470AB101617047DC
:102850000904FBE701488068704700009C000020E5
:10286000704770472DE9F041016804464A694E6897
:1028700090F83E000025D743FA050BD4F243D20569
:1028800008D46FF4807201254A6121680A6842F415
:1028900000420A60B90508D4F143C90505D422688D
:1028A0006FF4007145F002055161790525D4F143BB
:1028B000C90522D4638D94F83D10226B202808D1DD
:1028C0003BB9212910D029290ED0282901D1212A4C
:1028D0000AD022686FF48061516145F00405102828
:1028E00006D0402804D008E0204602F037FB04E080
:1028F0002068016841F400710160380508D4F04394
:10290000C00505D421686FF4006045F008054861F2
:10291000002D07D0206C284320642046BDE8F041FC
:1029200001F0A6BEBDE8F0812DE9F0470268002164
:102930005368C66A90F83E4090F83D50102C12D073
:10294000402C10D0046C002C7DD05469E443A607C1
:102950007AD4DE43B60577D4036C03B19169BDE840
:10296000F04702F0D7BA976951694FF42A0CC9436E
:102970005FEAC1784FF02A4904D066452AD04E4517
:1029800028D010E0DE43B6050DD4C16A614501D1FF
:10299000012103E0C16A494501D10821C162BDE8B6
:1029A000F04702F01DBA0E0716D4DE43B60513D465
:1029B000416CC9B21161416B09B1896A29B9816B56
:1029C000002907D0896A002904D00068416841F4D1
:1029D00000614160BDE8F0878E0706D4DE43B6058E
:1029E00003D4BDE8F04702F04FB9FE4352687607C2
:1029F0004FEA02521DD4002AECDB0A0608D4DA435F
:102A0000520505D4490705D5BDE8F04702F0E0B806
:102A10004907DFD4D9438905DCD4212D05D0402CCA
:102A2000D8D1BDE8F04702F021BABDE8F04702F086
:102A30008DB8002ACEDB4A060BD4DA43520508D4FF
:102A4000490708D501E00DE00EE0BDE8F04701F0D0
:102A50003FBF4907BED4D9438905BBD4BDE8F04781
:102A600001F0C9BE916970E7E10606D4D943890532
:102A700003D4BDE8F04702F0B9BA2821212D27D0B0
:102A8000292D25D0650655D4DD436D0552D4640744
:102A900052D590F83D30448D002C9BD01269446A89
:102AA0002270426A521C4262428D521E4285428D01
:102AB000002A8FD12A2B8DD10268536823F48063BA
:102AC00053602222026380F83D1000F0E1FB81E7B1
:102AD000250623D4DD436D0520D4640720D590F866
:102AE0003D30448D002CF2D0446A24781461426A4F
:102AF000521C4262428D521E4285428D002AE6D10E
:102B0000292BE4D10268536823F4806353602122A7
:102B1000026380F83D1000F0BCFB5BE76107D6D490
:102B2000D9438905D3D4418D0029D0D0416A097891
:102B300011610AE06107CAD4D9438905C7D4418D20
:102B40000029C4D01169426A1170416A491C41626E
:102B5000418D491E41853DE77047000070B5040076
:102B600025D094F83D00002520B984F83C5020463B
:102B700000F032FB242084F83D002068016821F039
:102B8000010101602068016841F400410160206892
:102B9000016821F40041016001F016FA4D4A6168B4
:102BA000914201D84C4900E04C49884201D20120B1
:102BB00070BD4B492368B0FBF1F15E6826F03F061B
:102BC0000E435E606368934206D94FF4967359438F
:102BD0004FF47A73B1FBF3F12368491C1E6A26F0A7
:102BE0003F06314319626168914210D84900401E86
:102BF000B0FBF1F2521CC2F30B02042A01D20420F2
:102C000022E0B0FBF1F0401CC0F30B001CE0A26816
:102C1000F2B301EBC10303EB0116431EB3FBF6F362
:102C20005B1C43F480431B0549D092B301EBC10206
:102C300002EB0111401EB0FBF1F0401CC0F30B0091
:102C400040F4804040F400402168CA694CF6FF73AC
:102C50009A431043C861D4E9071001432068026811
:102C600022F0C00211430160D4E90301014320684E
:102C7000826848F2FF339A4311438160D4E9050129
:102C800008432168CA6822F0FF021043C86001E0CF
:102C90000EE016E02068016841F001010160256442
:102CA000202084F83D00256384F83E50002070BD4C
:102CB00001EB4106431EB3FBF6F35B1CB3E70120B7
:102CC000C2E701EB4101401EB0FBF1F0401CC0F334
:102CD0000B00B7E7A086010080841E0000093D00BC
:102CE00040420F002DE9FF4F81B089460446FFF7AF
:102CF000B1FD054694F83D004FF0000820287DD135
:102D00001923012250492046009502F049FA002873
:102D100074D194F83C00012870D0012084F83C0064
:102D200020680168C90703D1016841F00101016011
:102D30002068016821F400610160242084F83D00CE
:102D4000002626644148E0624FF0011B20272068DE
:102D5000016841F4807101600095002259462046C7
:102D6000049B02F01DFA50B120680068C00502D52E
:102D70004FF400702064032005B0BDE8F08F216897
:102D800009F0FE000861FFF765FD21680546486906
:102D90004969C0F34000C1F380214FF0A00A0FE061
:102DA000FFF758FD411B0498814200D808B984F808
:102DB0003DA0216848694969C0F34000C1F3802102
:102DC00094F83D20A02A02D008B90029E8D084F860
:102DD0003D7020684169C943890716D4016841F4F0
:102DE0000071016020684169806919230122164938
:102DF0002046009502F0D4F9B8B900E021E084F84B
:102E00003D7084F83C600020B6E7016841F4007131
:102E1000016021686FF480604861192301220A492A
:102E20002046009502F0BCF908B10120A4E7039800
:102E300008F1010880458AD384F83D7084F83C602D
:102E4000F3E7022098E70000020010000000FFFFF7
:102E500070477047704700002DE9F84F0025DDF8F6
:102E60002890984617468A4604460095FFF7F2FCDC
:102E7000064694F83D0020287AD11923012286497C
:102E80002046009602F08CF90028F5D194F83C0019
:102E900001286DD0012084F83C0020680168C90732
:102EA00003D1016841F0010101602068016821F44B
:102EB00000610160222084F83D00102084F83E006B
:102EC00025646762A4F82A80608D20857348E062DB
:102ED00033464A465146204601F074FD00287CD115
:102EE000208DDFF8BC81202768B1012814D002288A
:102EF000206801681ED041F480610160206841694A
:102F000080690090BBE02068416981690091016897
:102F100041F400710160B2E02068016821F4806131
:102F2000016072B62068416981690091016841F4CD
:102F300000710AE041F40061016072B620684169E5
:102F400081690091016821F48061016062B696E0B8
:102F5000032865D801280CD002284B464FF0000208
:102F60004146204600960BD002F01AF9A8BB0CE0AF
:102F700090E032464946204602F0B8F968BB71E05D
:102F800002F00EF948BB72B633E02068016821F404
:102F90008061016072B620680069616A0870606AC9
:102FA000401C6062208D401E2085608D401E608523
:102FB0003C4846F2A8110068B0FBF1F0C0EBC0003D
:102FC00000EB80000090401E009007D02068406910
:102FD000C04340070DD50098F5E727E044F8305F7F
:102FE0006773A573206940F02000206162B62573E5
:102FF0001CE02068016841F40071016020680069EC
:10300000616A0870606A401C6062218D491E2185DA
:10301000618D491E618562B621680969017025E0EC
:1030200032464946204602F061F910B10120BDE860
:10303000F88F20680069616A0870606A401C6062ED
:10304000208D401E81B22185608D401E60852068E4
:103050004269D243520712D4032903D1016821F4F3
:103060008061016020680069616A0870606A401CC4
:103070006062208D401E2085608D401E6085208D01
:1030800000287FF465AF84F83D7084F83E5084F8E2
:103090003C50CCE70220CAE7020010000000FFFF0E
:1030A00004000100A80000202DE9F84F1F469046BB
:1030B0008A460446DDF82890FFF7CCFB054694F8D5
:1030C0003D0020287FD11923012240492046009548
:1030D00002F066F8002876D194F83C00012872D0FE
:1030E000012084F83C0020680168C90703D1016809
:1030F00041F0010101602068016821F40061016074
:10310000212084F83D00102084F83E00002626642B
:10311000C4F824806785608D20852D48E0622B46A9
:103120004A465146204601F0C3FC90B920684169E7
:103130008069009036E02A464946204602F00EF9A2
:1031400050B1206C042804D12068016841F400715A
:1031500001600120BDE8F88F606A2168007808618D
:10316000606A401C6062618D491E6185218D491E27
:1031700089B2218522685369DB435B070BD451B1C7
:1031800000781061606A401C6062608D401E60853E
:10319000208D401E20852A464946204601F0D4FF56
:1031A0000028CED1208D0028C5D154F83D0B0168F0
:1031B00041F400710160202004F81E09E67766776B
:1031C0000020C7E7FFE70220C4E70000020010006C
:1031D0000000FFFF7047704730B585B000210091B7
:1031E000019102910391264D0368264C122103227E
:1031F0002548AB4218D1A36943F00803A361A36932
:10320000039203F008030493C023CDE9003169461B
:10321000FFF726FAE06940F40010E061E06900F48D
:103220000010049005B030BD184DAB42FAD1A3692F
:1032300043F00803A361A369039203F00803049316
:103240004FF44063CDE900316946FFF709FAE069C0
:1032500040F48000E061E069002200F48000049006
:103260000221212000F07CF8212000F06BF80022E0
:103270000221222000F074F8222000F063F8D1E748
:103280000054004000100240000C01400058004073
:103290007047704702488168027811448160704726
:1032A0009C000020074810B5016841F01001016042
:1032B000032000F075F80F2000F006F800F024F865
:1032C000002010BD0020024070B50D4D04464FF4A3
:1032D0007A712878B1FBF0F00A490968B1FBF0F087
:1032E00001F048F848B9102C07D200222146501EA0
:1032F00000F036F800206C6070BD012070BD000049
:103300009C000020A80000200C4808B5816941F00D
:1033100001018161816901F001010091C16941F000
:103320008051C161C06900F080500090044841683C
:1033300021F0E06141F00071416008BD00100240E1
:1033400000000140002809DB00F01F02012191402C
:103350004009800000F1E020C0F800117047000033
:10336000F0B40E4B1B680C46C3F30223C3F10705F0
:10337000042D00D90425191D072901D2002300E0DE
:10338000DB1E012606FA05F1491E214099409E40A8
:10339000761E16403143F0BC04F006BA0CED00E096
:1033A000064900F0070208684FF6FF03184040EA9C
:1033B0000220034A10430860704700000CED00E053
:1033C0000000FA0510B50C0607D501F0070101EB66
:1033D000810100EBC100103005E001EB810100EB41
:1033E000C10000F5A87099B232B1012202730181C7
:1033F000190C4181002010BD00220273C180F9E741
:10340000704701EB810200EBC202D0F8D402526A8D
:1034100003F051B901EB810200EBC202D0F8D402F3
:10342000D2F8642103F0AAB970B504460B0601F086
:10343000070000EB800104EBC1014FF001024FF0E7
:10344000000502D54A74103103E081F8515101F5AD
:10345000A871087094F89002012808D084F890228E
:10346000206803F0DFFD84F89052002070BD022038
:1034700070BD70B5044601F00F002279904201D969
:10348000012070BD0B0601F0070000EB800104EB8A
:10349000C1014FF001024FF0000502D54A7410310E
:1034A00003E081F8515101F5A8718D70087094F80E
:1034B0009002012808D084F89022206803F04FFE83
:1034C00084F89052002070BD022070BD2DE9F05F9D
:1034D00004685FEA424C0B788D69B4F850C04FF035
:1034E00000064BF68F7948F2800A48F68F7B48F247
:1034F000C00E4FF480672AD54FF0020808EBC308CE
:10350000C44407EB4C07E45BC4F30904A54203D3AE
:103510002D1B8D6101D00BE08E61066836F82350BB
:1035200005EA090585F4005545EA0A0526F8235001
:10353000520609D50D78036833F8252002EA0B02FC
:1035400042EA0E0223F8252084B30A8929E04FF0CD
:10355000060808EBC308C44407EB4C07E45BC4F35C
:103560000904A54203D32D1B8D6101D00BE08E61B0
:10357000066836F8235005EA090585F4005545EA42
:103580000A0526F82350520609D40B78056835F849
:10359000232002EA0B0242EA0E0225F823202CB176
:1035A0004A8949690068234604F0B8F82046BDE816
:1035B000F09F2DE9F05F054600680C465FEA426C1B
:1035C00016468B692278B0F850C048F68F774CF2D7
:1035D00080094FF4004B4FF6FF7E4FF4806A4FF0A6
:1035E000000172D54FF0020808EBC208E0440AEB74
:1035F000480C30F80C00C0F30900834211D91B1AA3
:10360000A3610FD0730407D52E6836F822303B40F3
:1036100043EA090326F8223094F82420012A47D0EF
:1036200052E1A161607810B1012813D01AE0286836
:10363000B0F85030184400EB0210B0F80424C2F384
:103640000902A0F80424B0F8042442F40042A0F8CF
:10365000042407E02868B0F85030184400EB02104A
:10366000A0F804146278286812B1012A11D018E079
:10367000B0F850100844217800EB0110B0F80C1499
:10368000C1F30901A0F80C14B0F80C1441F4004186
:1036900005E0B0F850201044227800EB0210A0F8AA
:1036A0000C1421782846FFF7ACFE700472D40BE1AD
:1036B000626902446261E2690244E2612369226A4A
:1036C0009A4203D31846111A04E03EE084F824100D
:1036D0000AB110462162617811B1012929D031E087
:1036E0002968B1F850201144227801EB0211B1F899
:1036F0000424C2F30902A1F8042401F204413E2883
:1037000007D94209C30600D1521E0B884BEA822218
:1037100007E048B14208C30700D0521C0B880EEAEC
:10372000822213430B800DE00A8842F400420A8093
:1037300008E02968B1F850201144227801EB021109
:10374000A1F8040483B22289BAE04FF0060808EB1E
:10375000C208E0440AEB480C30F80C00C0F3090042
:10376000834211D31B1AA3610FD0730407D42E68B0
:1037700036F822303B4043EA090326F8223094F819
:103780002420012A51D09FE0A161607818B101285E
:1037900014D01BE03FE02868B0F85030184400EB2C
:1037A0000210B0F80424C2F30902A0F80424B0F80F
:1037B000042442F40042A0F8042407E02868B0F88A
:1037C0005030184400EB0210A0F804146278286806
:1037D00012B1012A11D018E0B0F850100844217835
:1037E00000EB0110B0F80C14C1F30901A0F80C149F
:1037F000B0F80C1441F4004105E0B0F8502010443A
:10380000227800EB0210A0F80C1421782846FFF76C
:10381000F8FD700458D42278296831F82200384025
:1038200040EA090021F822004EE062690244626128
:10383000E2690244E2612369226A9A4203D318468C
:10384000111A216204E00AB11046216284F82410A2
:103850006278296812B1012A28D02FE0B1F85020EF
:103860001144227801EB0211B1F80C24C2F30902D1
:10387000A1F80C2401F20C413E2807D94209C306E5
:1038800000D1521E0B884BEA822207E048B1420861
:10389000C30700D0521C0B880EEA822213430B8010
:1038A0000CE00A8842F400420A8007E0B1F8502098
:1038B0001144227801EB0211A1F80C04628983B251
:1038C0006169286803F048FF2278296831F82200EE
:1038D00048F6BF73184080F0300048F28003184368
:1038E00021F822000020BDE8F09F2DE9F0410446B8
:1038F0000F0601F0070000EB800104EBC1014FF05F
:1039000001064FF0000502D54E74103103E081F836
:10391000515101F5A871022B08700A61CB7000D1DA
:103920000D7194F89002012809D084F89062206803
:1039300003F028FA284684F89052BDE8F08102206E
:10394000FBE710B501F0070404EB840100EBC101B3
:10395000C1E959230022C1F86C2181F8512181F875
:103960005041006801F5A87103F04EFC002010BD25
:1039700070B504460D4601F007002179884201D94F
:10398000012070BD29064FF000064FF0010206D558
:1039900000EB800104EBC1014A74103107E005EB34
:1039A000850104EBC10181F8516101F5A8718A70AC
:1039B000087094F89002012807D084F890222068BB
:1039C00003F009FC680702D006E0022070BD04F590
:1039D0002671206803F0C1FB84F89062002070BD5E
:1039E00010B501F0070404EB840100EBC101C1E94B
:1039F0000923012281F834200B630023CB624A742F
:103A000001F8104F006803F0FFFB002010BD00001C
:103A10001FB50446006803F07DFE010403D520466F
:103A200001F0C8FE1FBD41050DD5206830F8441FC8
:103A300021F480610180204600F008F90021204631
:103A400000F01FF91FBD410405D5206830F8441F60
:103A500021F4804174E0810405D5206830F8441FCA
:103A600021F400516CE0C10414D5206830F8401FE7
:103A700021F004010180206830F8401F21F0080186
:103A80000180204600F0F5F8206830F8441F21F44A
:103A9000805155E0010540D5D4F80020002069464A
:103AA00032F8203021F81030401CC0B20828F7D37B
:103AB00032F8400F40F001001080206830F8402FAD
:103AC00022F0010202802068B0F844205205FBD5A4
:103AD00030F8442F22F4806202800020236831F8FD
:103AE000102023F82020401CC0B20828F6D32068FC
:103AF00030F8401F41F008010180206830F8441F71
:103B000021F400610180206830F8401F41F0040179
:103B10000180204600F0E8F81FBD810509D5206826
:103B200030F8441F21F400710180204600F0A5F810
:103B30001FBDC005FCD5206830F8441F21F48071FA
:103B400001801FBD2DE9F041040004D094F89102DA
:103B5000002518B107E00120BDE8F08184F89052FB
:103B6000204600F04DF8032084F89102657120682A
:103B700003F0ECFA94E80F0003F052FA022698BB27
:103B80000021206803F0E0FD70BB002001270BE05E
:103B900000EB800104EBC1014F740874CD740D6219
:103BA0004D62401CC0B28D6221798142F0D8002064
:103BB00012E000BF00EB800104EBC10181F851511C
:103BC00081F8500181F85351C1F86051C1F8645136
:103BD000401CC0B2C1F8685121798142EAD894E80A
:103BE0000F0003F0AAFA10B184F89162B3E765738D
:103BF00084F89172206803F09EFA0020ACE7000080
:103C000008B500680F4988421AD10F48C16941F4CC
:103C10000001C161C069002200F400000090012190
:103C20001320FFF79DFB1320FFF78CFB00220121DF
:103C30001420FFF795FBBDE808401420FFF782BB76
:103C400008BD0000005C00400010024070B5044652
:103C500080790125022801D0FEF745F92946D4F8DC
:103C6000D40202F067FED4F8D402BDE8704002F03E
:103C700023BED0F8D40202F047BED0F8D40202F03E
:103C80004DBE10B5044690F8900201280AD00120DC
:103C900084F890026173206803F058FD002084F8D6
:103CA000900210BD022010BDD0F8D42200F526717C
:103CB000104602F04BBE10B5044690F89002012861
:103CC00010D0012084F89002206803F00EFD01213D
:103CD0002046FFF795FB206803F02BFA002084F8BC
:103CE000900210BD022010BD10B50446D0F8D402D9
:103CF00002F06BFEA07A002804D00348016841F06E
:103D00000601016010BD000010ED00E010B5014695
:103D10000020234C012922D0022939D010291DD19D
:103D200061682268D20119D51E48C1F38342C903D4
:103D3000805C0AD561681B4AC1F34041921E515C08
:103D4000194AB2FBF1F1484301E018494843616860
:103D5000490203D440000321B0FBF1F010BD226AF8
:103D6000C2F30121012903D1920701D5C80310BD77
:103D7000022905D1626A920702D549F6404010BD7A
:103D80000329FCD121688903F9D54FF2244010BDE5
:103D900000F02AF96168C1F38131491C4900DBE771
:103DA00000100240067A000800127A0000093D0067
:103DB0002DE9F84305460078354CC00754D0E0693A
:103DC0000026C00008D4E06940F08050E061E0695E
:103DD000012600F0805000902E480168C90512D4D9
:103DE0000168804641F480710160FEF733FD0746AB
:103DF00005E000BFFEF72EFDC01B642823D8D8F8CD
:103E00000000C005F6D5206A10F4407021D0A988C2
:103E100001F4407181421CD0206A1F49012220F424
:103E200040700A6000220A602062C00711D0FEF7CD
:103E300011FD074641F2883808E000BFFEF70AFD91
:103E4000C11B414502D90320BDE8F883206A8007E1
:103E5000F4D5206A696820F44070084320621EB1DE
:103E6000E06920F08050E0612878800705D560681F
:103E7000A96820F44040084360602878C00605D552
:103E80006068E96820F48000084360600020DBE798
:103E90000010024000700040400442422DE9F0470B
:103EA0000F46050061D0434E306800F00700B8426D
:103EB00009D2306820F0070038433060306800F0E5
:103EC0000700B84251D128683B4C810712D5400702
:103ED00003D5606840F4E06060602878000703D58F
:103EE000606840F4605060606068A96820F0F0008D
:103EF000084360602878C00728D06868012810D07F
:103F00002168022810D0890700292EDA616821F083
:103F1000030101436160FEF79DFC804641F2883950
:103F20000DE021688903EFE78901EDE7FEF792FCD8
:103F3000A0EB0801494502D90320BDE8F08760687D
:103F4000696800F00C00B0EB810FEFD1306800F031
:103F50000700B8420BD9306820F0070038433060C2
:103F6000306800F00700B84201D00120E5E728786A
:103F7000400705D56068E96820F4E06008436060A8
:103F80002878000706D56068296920F4605040EA67
:103F9000C100606000F038F86168084AC1F303119D
:103FA000515CC8400649086006480068FFF78CF974
:103FB0000020C2E70020024000100240167A0008EC
:103FC000A8000020A00000200448054900684968B6
:103FD000044AC1F30221515CC8407047A800002088
:103FE00000100240267A0008044805490068496824
:103FF000044AC1F3C221515CC8407047A8000020A8
:1040000000100240267A00080E4A51680E4801F05E
:104010000C03042B11D0082B0FD10C48C1F38343A0
:10402000C903C05C0AD55168084AC1F34041921ED9
:10403000515C054A5043B0FBF1F0704704494843D6
:10404000704700000010024000127A00F479000866
:1040500000093D002DE9F84F040070D02078C04DD4
:10406000C00749D06868C0F38100012807D068689C
:10407000C0F38100022809D16868C00306D528680A
:10408000800339D560680028E7D035E06068B0F576
:10409000803F0BD010B1B0F5A02F11D0286820F4CC
:1040A00080302860286820F4802002E0286840F4EE
:1040B00080302860606890B1FEF7CCFB06460AE0CD
:1040C000286840F480202860F0E700BFFEF7C2FBBC
:1040D000801B642873D828688003F7D50CE0FEF7AE
:1040E000B9FB064605E000BFFEF7B4FB801B642861
:1040F000F0D828688003F7D420789A4E80074FF0D4
:1041000001094FF0000839D5686810F00C0F07D08E
:104110006868C0F38100022809D16868C00306D42A
:104120002868800714D52069012808D110E020698B
:10413000B0B1C6F80090FEF78DFB074605E00AE136
:10414000FEF788FBC01B0228C4D828688007F7D573
:104150002868616920F0F80040EAC10028600DE09D
:10416000C6F80080FEF776FB074604E0FEF772FB18
:10417000C01B022823D828688007F7D420780007BE
:104180002CD57948A169D9B1C0F80090FEF762FB3F
:10419000074604E0FEF75EFBC01B02280FD8686AE2
:1041A0008007F7D571484FF4FA510068B0FBF1F081
:1041B000009000BF0098411E0091FAD20EE080E00E
:1041C000C0F80080FEF746FB074604E0FEF742FB1E
:1041D000C01B022875D8686A8007F7D4207840078A
:1041E00060D5E8690027C00008D4E86940F0805035
:1041F000E861E869012700F0805000905C480168A0
:10420000C90513D40168834641F480710160FEF74B
:1042100021FB824606E000BFFEF71CFBA0EB0A0074
:1042200064284ED8DBF80000C005F5D5E068012809
:104230000AD008B1052813D0286A20F001002862AE
:10424000286A20F0040002E0286A40F00100286299
:10425000E06841F2883B98B1FEF7FCFA82460BE039
:10426000286A40F004002862EEE700BFFEF7F2FA89
:10427000A0EB0A0159455AD8286A8007F6D50CE008
:10428000FEF7E8FA824605E0FEF7E4FAA0EB0A0141
:1042900059454CD8286A8007F6D41FB1E86920F048
:1042A0008050E861E06988B36968C1F3810102293F
:1042B00044D00228C6F8608004D0FEF7CBFA04464A
:1042C00038E034E0FEF7C6FA074604E0FEF7C2FA2B
:1042D000C01B02282BD828688001F7D4206AB0F5CB
:1042E000803F05D16868A16820F400300843686009
:1042F000D4E908010843696821F47411084368602F
:10430000C6F86090FEF7A6FA044606E025E000BF76
:10431000FEF7A0FA001B022809D828688001F7D50B
:104320001BE000BFFEF796FA001B022802D903200B
:10433000BDE8F88F28688001F4D40EE00128F7D09A
:104340006868226A00F48031914204D1616A00F405
:104350007010884201D00120EAE70020E8E7000061
:10436000001002400000424280044242A8000020A7
:104370000070004010B5401EB0F1807F01D30120D5
:1043800010BD4FF0E02460610F21601703F00CFABC
:104390000020A06107202061002010BD70B504003E
:1043A00004D094F84100002510B106E0012070BD52
:1043B00084F84050204600F023F8242084F841007F
:1043C0002068C16821F40051C160204601F032FE2E
:1043D0002068016921F4904101612068416921F060
:1043E0002A0141612068C16841F40051C1606564DF
:1043F000202084F8410084F842006563002070BDED
:1044000030B585B0002400940194029403940068B0
:104410001449884224D11448816941F48041816162
:10442000816901F480410491816941F00401816155
:1044300080690E4D00F0040004904FF4007000906D
:10444000022001900320039069462846FEF708F9F0
:104450002815CDE90004694628460294FEF700F9C4
:1044600005B030BD00380140001002400008014096
:104470002DE9F843044690F84100984616460D464B
:10448000202802D00220BDE8F88385B17EB100204B
:104490006064212084F84100FEF7DCF9A68481469F
:1044A000E684A0682027B0F5805F02D003E00120F9
:1044B000E9E7206910B12E4600250EE000260CE049
:1044C0008021204601F012FEA8B9C6B116F8010BF2
:1044D00021684860E08C401EE084E08C4B464FF041
:1044E0000002CDF800800028EAD14FF040012046BC
:1044F00001F0FCFD40B184F841700320C3E735F8BA
:10450000020BC0F30800E3E784F841700020BAE72B
:1045100038B5FDF739FC02218DF800100024184948
:104520008DF801408DF802400A881E2A01D20C80C5
:1045300004E040F6D2739A4200D90B80012802D0E1
:10454000022802D006E0E92000E0EA208DF8010010
:104550008DF80240032269460A4801F08EFE0A20C7
:10456000FEF76CF88DF801408DF802400322694691
:10457000044801F082FE0A20FEF760F838BD000012
:104580007C03002000090020FEE700000148FEF740
:1045900069B90000E00200200148FEF7C5B900003B
:1045A000E002002038B5406A002190F83D202B4BF6
:1045B00046F2A8141B68B3FBF4F3C3EBC30303EB8D
:1045C000830300933BB15B1E009303681B689B054C
:1045D00005D5009BF6E7036C43F020030364436BAF
:1045E00003B19962836B03B1996203681C6824F478
:1045F00080641C604185436B03B15963836B03B1D5
:10460000596303681C6824F001041C6090F83D4065
:104610002023602C0BD0282434EA02020FD080F82B
:104620003D3080F83E1000BFFEF796FA38BD80F8A6
:104630003D3080F83E100164FEF712F938BD026883
:10464000136843F0010313600268136843F4806346
:104650001360016380F83D40E6E70000A8000020F9
:1046600000684169C943090601D40021016170470E
:1046700070B5044690F83D0094F83E10102901D022
:10468000402906D1222804D121680A6822F4006258
:104690000A60282131EA00024FF000054FF02006A1
:1046A00026D021684968090505D4602803D084F81C
:1046B0003D6084F83E50256320684168090537D580
:1046C000416821F400614160606B90F821203C4911
:1046D000012A11D04163606BFDF750FE38B32068AA
:1046E000016821F00101016084F83D60606B1CE00D
:1046F000256384F83D10DFE7A06B4163A06BFDF7F5
:104700003DFEA0B120684169C943490605D400694E
:10471000616A0870606A401C60622068016821F06C
:104720000101016084F83D60A06B416B884710E097
:1047300094F83D10602910D04169C943490605D459
:104740000069616A0870606A401C60622046FEF77A
:1047500003FA206CC1071CD115E084F83D60256484
:104760004169C943490605D40069616A0870606AF5
:10477000401C60622068016821F001010160204650
:10478000FEF76EF8E5E7810703D4410701D400077F
:1047900004D52068416821F4E061416094F83D004F
:1047A000216C49070BD5282809D10648E06225630A
:1047B00084F83D6084F83E502046FEF749FB70BD0A
:1047C000A54500080000FFFF01684A69D243520571
:1047D0000FD46FF480624A61002140F8301F20221C
:1047E00042738173026942F0040202610173012085
:1047F00070470020704710B5C26A438D0168042BD2
:1048000006D0438D032B08D0438D022B1DD012E020
:104810004A6822F480624A600CE04B6823F48063AB
:104820004B60042A06D0022A04D001680A6822F4E8
:1048300080620A6001680969426A1170416A491C14
:104840004162418D491E418510BD012A34D0102A94
:1048500032D0042A34D0022A32D00B6843F40073D9
:104860000B6001680969436A1970416A491C416219
:10487000438D5B1E438503681B690B70416A491CAD
:104880004162418D491E418501684B6823F44073A4
:104890004B60202180F83D1090F83E300021402BE5
:1048A00080F83E1010D0082A02D0202A00D0122111
:1048B0000163FEF7CEFA10BD0B6823F48063CFE7E7
:1048C0000B6843F48063CBE70163FEF783FC10BD04
:1048D00038B590F83D10222910D1C36A418D0329C3
:1048E0000DD901680969426A1170416A491C416227
:1048F000418D491E4185418D032906D038BDC26ACC
:10490000022A02D0012906D029B10068416821F4A9
:104910008061416038BD2A4A46F2A814002112681D
:10492000B2FBF4F202EB8202009202682024009DA6
:104930006D1E009526D01568AD05F8D4156825F4D0
:10494000806515600268556825F4E0655560026869
:104950001269456A2A70426A521C4262428D521E96
:10496000428580F83D4090F83E2080F83E10402A75
:1049700021D0082B02D0202B00D012210163FEF79A
:1049800068FA38BD036C43F020030364536823F4D2
:10499000E063536002681269436A1A70426A521CEB
:1049A0004262428D521E428580F83D4080F83E10A2
:1049B000FEF7D2F838BD0163FEF70CFC38BD0000ED
:1049C000A80000202DE9F84F0446C06A1E46934611
:1049D0000D4621680A6842F480620A60082807D000
:1049E000012805D010F5803F02D0206B112804D19A
:1049F0002068016841F4807101604FF001195B4645
:104A0000002249462046009600F0CAFB4FF4007889
:104A100040B120680068C00501D5C4F8408003207B
:104A2000BDE8F88F2069DFF884A0B0F5804F0FD083
:104A30000620216800EAD51747F0F00008613346E8
:104A40005A460AF10601204600F0F2FB58BB03E08B
:104A5000E8B240F001001CE02168E8B2086133468A
:104A60005A465146204600F0E3FBE0B92068416910
:104A700081690091016841F4807101605B46002208
:104A800049462046009600F08BFB0028C1D147F034
:104A9000F1002168086133465A465146204600F02D
:104AA000C7FB0028BCD00120BAE7000002000100CB
:104AB000F8B50446C06A1E460D461746082807D0BA
:104AC000012805D010F5803F02D0206B122804D1B8
:104AD0002068016841F480710160134600224FF0A4
:104AE00001112046009600F05BFB40B12068006891
:104AF000C00502D54FF4007020640320F8BD206982
:104B0000B0F5804F0ED00620216800EAD51040F0A5
:104B1000F000086133463A460B49204600F088FB16
:104B200078B902E005F0FE0000E0E8B22168086113
:104B3000054933463A46891F204600F079FB002894
:104B4000DCD00120F8BD00000800010010B5C26AE9
:104B500090F83D1021290BD1418D51B1416A026875
:104B600009781161416A491C4162418D491E4185A4
:104B700010BD20230021082A13D0202A11D012F5BD
:104B8000803F0ED00268546824F4E064546011221F
:104B9000026380F83E1080F83D3000BFFEF75AF9FE
:104BA00010BD0268546824F4E0645460026814681C
:104BB00044F400741460016380F83D3090F83E20A6
:104BC00080F83E10402AE9D1FEF705FB10BD000039
:104BD00010B590F83D1090F83E30C26A048DB4B123
:104BE000212903D0402B11D122290FD1418DE1B3CE
:104BF00090F83E10402942D0416A0268097811615C
:104C0000416A491C4162418D491E418510BD2129DF
:104C1000E8D120230021082A13D0202A11D012F530
:104C2000803F0ED00268546824F4E064546011227E
:104C3000026380F83E1080F83D3000BFFEF70AF9AD
:104C400010BD0268546824F4E0645460026814687B
:104C500044F400741460016380F83D3090F83E2005
:104C600080F83E10402AE9D100E002E0FEF7B3FAF6
:104C700010BD0068416821F48061416010BDBDE84D
:104C8000104000F0F3B8000078B590F83E50C26ACA
:104C9000046B90F83D6000230168222E73D1066DED
:104CA0000EB9402D6FD0056D1DB90569B5F5404FA2
:104CB0001BD0458D95B3468D484D012E20D0448D97
:104CC000022C4DD00C6844F480640C6001684C6880
:104CD000240579D5AA4273D0012A71D0082A6FD051
:104CE000102A6DD0202A6BD06EE04A698A69009242
:104CF0000A6842F480720A60016D491C016578BD42
:104D0000AA4214D10A6822F480620A6001684A68E3
:104D1000120504D50A6822F4806217E0FFE74A69A9
:104D20008A6900920A6842F400720A6050E0082A18
:104D300010D0202A0ED0122C0AD0042A03D0022A26
:104D400001D0102AE6D10A6842F480620A603BE092
:104D5000012ADFD00A6822F480620A600168DEE777
:104D6000042A11D0022A0FD0102A0DD00C6844F466
:104D700000640C6001684C698C6900940C6824F430
:104D800080640C6008E025E00C6844F480640C60EA
:104D900001684C698969009101684C68240517D540
:104DA000AA4207D0012A05D0082A03D0102A01D030
:104DB000202A0DD14A6842F480524A6008E0FFE799
:104DC0004A6842F480524A6001684A6989690091E0
:104DD000036578BD48698869009078BD0000FFFFD1
:104DE00090F83E10402910D00169B1F5804F19D0DC
:104DF000016DA9B3016D012910D1416C5FF0F10281
:104E000001F4407142EAD11106E0016D0029416CC4
:104E100005D0C9B241F0010100680161704701F09D
:104E2000FE01F9E790F83D102129416C09D0C9B283
:104E300041F0010102681161416B29B1896A49B9E8
:104E400002E001F0FE01F5E7816B0029E6D0896AF6
:104E50000029E3D00068416841F400614160704777
:104E6000FFE7416CF02201F44071CBE710B590F8F8
:104E70003D10026D4AB1026D012A14D0026D022A62
:104E800016D0BDE81040FFF7EBBBC16C0129816C67
:104E900002D0C1F3072108E00268C9B21161016DB7
:104EA000891C016510BD816CC9B20268116123E0E3
:104EB00022291CD0428D0AB1212920D0428D002AFE
:104EC000F0D12129EED101684A6822F4E0624A60FB
:104ED00001680A6842F400720A600021016320221E
:104EE00080F83D2080F83E10FEF775F910BD01688E
:104EF0000A6842F480720A60016D491CD1E7416A78
:104F0000026809781161416A491C4162418D491E5C
:104F1000418510BD38B50C4690F83D20002128256C
:104F2000954302680B4605D051699169009180F85C
:104F30003C3038BD556825F480655560E243540720
:104F400000D50121120601D5828900E0028B80F88C
:104F50003C3092B2FDF785FC38BD00002DE9F041F0
:104F600090F83D300446C26A002120261E4F00689A
:104F70006FF48065082A01D0202A01D1282B04D0A3
:104F8000212B17D04561BDE8F081E762426822F429
:104F9000E0624260206845612068026822F4806215
:104FA0000260216384F83D6084F83E102046FDF7DE
:104FB0004FFFE8E7E7622122226384F83D6084F82E
:104FC0003E10416821F4E06141602068456120683D
:104FD000016821F4806101602046FFF741FB204613
:104FE000FEF757F9CFE700000000FFFFF8B590F893
:104FF0003D6004460068416821F4E061416020683A
:10500000002541690091016841F0010101602068BB
:10501000016821F48061016020684168090520D59C
:10502000474F222E48D02A2E46D0616B0968496826
:105030006185618D19B1216C41F0040121644168E1
:1050400021F400614160606BFDF7E4F9012808D0AC
:10505000606B4763606BFDF791F910B1606B416B5A
:105060008847608D08B320684169C943490708D45F
:105070000069616A0870606A401C6062608D401E51
:10508000608520684169C943490608D40069616A9E
:105090000870606A401C6062608D401E6085608D93
:1050A00018B1206C40F004002064206C00B320464E
:1050B000BDE8F840FFF7DCBAA16B09684968618573
:1050C000618D19B1216C41F004012164416821F422
:1050D00000614160A06BFDF79DF90128C1D0A06B74
:1050E0004763A06BFDF74AF90028BAD0A06BB6E77A
:1050F0002A2E06D12563282084F83D002046FEF79D
:10510000C7F894F83D10202028290DD0216B2229C2
:1051100001D0222E07D1256384F83D0084F83E504B
:105120002046FEF7B5F8F8BD0649E162256384F82C
:105130003D0084F83E502046FDF78AFEF8BD000091
:10514000A54500080000FFFF70B516460D46044651
:105150001EE02046FFF738FB08B1012070BD681C37
:1051600016D0FDF777FB801BA84200D885B92068D0
:105170004069C04340070BD5002044F8300F202180
:105180006173A073216941F0200121612073E4E77C
:1051900020684069C0434007DBD4002070BD000098
:1051A0002DE9F047984617460D460446C1F30746D9
:1051B000DDF820902AE000BFB8F1FF3F26D0FDF7D0
:1051C00049FBA0EB0901414502D8B8F1000F1DD100
:1051D0002068012E16D0806925EA00000004000C2A
:1051E00012D00020B84211D1002044F8300F202105
:1051F0006173A073216941F02001216120730120B6
:10520000BDE8F0874069E7E70120EBE72068012E61
:105210000AD0806925EA00000004000C06D00020B6
:10522000B842C9D00020EBE74069F3E70120F7E777
:105230002DE9F047984616460D4604464FF0000902
:105240004FF0200AC1F3074723E020684069C043BC
:10525000400515D42068016841F40071016021689F
:105260006FF480604861C4F8309084F83DA084F801
:105270003E90216C41F00401216484F83C9021E0CF
:10528000701C06D0FDF7E6FAA0EB0800B04203D888
:1052900016B1012F1FD021E02068012F15D08069A1
:1052A00025EA00000004000C18D000BF44F8309F2D
:1052B00084F80DA084F80E90216941F0200121614D
:1052C00084F80C900120BDE8F087406925EA0000D1
:1052D0000004000CEAD12068406901E02068806980
:1052E00025EA00000004000CAFD1ECE72DE9F04105
:1052F000002590460E460446202728E04069C0431A
:10530000C0060CD454F8301B6FF01000486144F80C
:1053100010596777A577206A2062257714E0FDF79A
:1053200099FAA0EB0800B04200D886B9206840691D
:10533000C04340060BD544F8305F6773A5732069FE
:1053400040F02000206125730120BDE8F081206835
:105350004169C9434906D1D40020F6E770B5164625
:105360000D4604461EE02046FFF72EFA08B1012044
:1053700070BD681C16D0FDF76DFA801BA84200D8DE
:1053800085B920684069C04300060BD5002044F869
:10539000300F20216173A073216941F02001216148
:1053A0002073E4E720684069C0430006DBD4002096
:1053B00070BD0000F0B500230A24302537261F46B3
:1053C00011E000BFB4EB107F02D905EB107C01E0C7
:1053D00006EB107C01F813C001EB430C00015B1CD1
:1053E0008CF80170DBB29342ECD3F0BD3EB50024E3
:1053F00011480094019402940E49846001600125D3
:105400000573047505614FF460214460C161FCF7C8
:105410005BFE08B172B6FEE70720CDE900056946DC
:1054200002940548FCF7CEFD002801D072B6FEE7D5
:105430003EBD0000002401405C0200202DE9F04147
:1054400086B0002428480094019402940394816952
:1054500041F020018161816901F02001049181699D
:1054600041F004018161816901F0040104918169C5
:1054700041F00801816180691C4F00F008004FF481
:1054800000460490002231463846FDF7DEF9DFF889
:105490006080002238214046FDF7D7F94FF4604084
:1054A00001258DE8310069464046FDF7D9F828020C
:1054B0008DE8310069463846FDF7D2F8CDE9006540
:1054C0000226CDE9024669463846FDF7C9F838207C
:1054D000CDE90005CDE9024669464046FDF7C0F832
:1054E00006B0BDE8F0810000001002400008014055
:1054F000000C014010B500220F49104801F0B4F82B
:1055000008B1FCF7F0FC0E490C4801F084FA08B130
:10551000FCF7E9FC0B49094800F0A7FE08B1FCF7CD
:10552000E2FC064801F0CCFA002803D0BDE81040A8
:10553000FCF7D9BC10BD0000C80000200009002005
:1055400088010020740100202DE9F05FDFF808A138
:10555000064600254FF004080AF1200B0AF1100955
:1055600000244746706807EBC401AC42415A50F82A
:10557000340001D0012200E00022FDF766F9641C2E
:10558000E4B2042CEED3B84600240AEB850700BF32
:10559000B06808EBC401415A50F83400FDF750F9E7
:1055A00000B10120395D40EA41003855FDF752F95C
:1055B000395D21B1C94311F0FF0F22D041E009EB61
:1055C0008502115DE9BB0BEB051151F82430C31ABC
:1055D000052B36D9012313551F4A41F82400A03268
:1055E00002EB8502002111551B49603101EB0511C9
:1055F00041F8240004EB8500401CC0B2307000214B
:105600001DE009EB85010A5DDAB10BEB051252F8DA
:105610002420801A052814D9002008550E49A031ED
:1056200001EB850108550C49603101EB051141F88A
:10563000240004EB8500401CC0B23070012100F052
:105640000DF8641CE4B2042CA2D36D1CEDB2042D41
:1056500086D3BDE8F09F00005008002010B5044636
:105660000F48002900EB840050F8042C16D112F0EA
:10567000FF000AD0012811D1100C00F0FDFB2146DB
:1056800008A0BDE8104000F069BAC2F30741C2F3B8
:10569000072000F025FC214609A0F2E710BD00001C
:1056A0005C0000204B65792025642073656E742CA6
:1056B000207479706520636F6E73756D65720A0072
:1056C0004B65792025642073656E742C2074797085
:1056D00065206B6579626F6172640A00FEE7FEE720
:1056E00038B52548FCF7C2FB234C24A194F90000EF
:1056F000009094F9013094F902202448FAF7F4FD5F
:1057000014210F2000F074FA012221491F4800F0F3
:1057100079FB2046FCF77AFB054605215A2000F06C
:1057200067FA1C4905EB850001EB400217481AA1F6
:105730001430FAF7D9FD154801221849143000F049
:1057400061FB0521084600F053FA94F90600009029
:105750000E4894F9053094F9042011A11430FAF799
:10576000C3FD0A4801220D49143000F04BFBBDE88F
:10577000384000F05BBB0000480000202530326458
:105780003A253032643A253032640000BC030020F0
:10579000B4000020AC79000825730000AC000020A4
:1057A000253032642F253032642F32302530326478
:1057B000000000002DE9F84F044640F68F7B48F6C4
:1057C0000F794FF480684FF0000ABDE1B0F8441043
:1057D00011F00F0539D030F8256031047ED530F84E
:1057E000251001EA0B0141F0800120F8251005EB9E
:1057F000850004EBC00797F85C0107F5A87700283F
:105800006DD0F87802286BD03978226832F8210000
:1058100048F68F73184048F2C003184322F821005D
:105820003978206830F82120B0F8503052047DD506
:10583000022202EBC1015A1808EB4201415A8905C4
:10584000890D009173D03A89DDE0C9062BD4018817
:1058500001EA090141F400410180206804F11005CA
:10586000B0F85030217C022202EBC1015A1808EB3B
:105870004201405AC0F30900E062616A0844606274
:1058800000212046FDF7BDFD607B00289DD0A86962
:1058900000289AD1607B216840F08000A1F84C007C
:1058A00084F80DA050E1018804F5A8750A0521D5FA
:1058B000B0F850202B78062101EBC3010A4408EB15
:1058C0004201405A04F52671C0F30903EB61EA88EE
:1058D000206801F023FF2068018802E0AEE06EE05E
:1058E0007EE001EA0B0141F0800101802046FEF7D5
:1058F000DBF929E10904D5D5018801EA0B0141F062
:10590000800101802068B0F850202B78062101EB3F
:10591000C3010A4408EB4201405A83059B0DEB6129
:1059200010D0696971B1EA88206801E05FE05DE04C
:1059300001F0F4FEE96968690844686100212046C5
:10594000FDF768FD216808880205ABD4C0F301307B
:105950000328A7D0B1F850000844B0F80C14C1F3E4
:105960000901A0F80C142A6900F20C403E2A09D95A
:105970005109D20600D1491E02884FF4004343EA80
:10598000812109E0B2B15108D20700D0491C028838
:105990004FF6FF7303EA81210A43028021680888D9
:1059A0004BF68F72104080F4405048F28002104352
:1059B0000880C9E0018841F400410180EEE72068D9
:1059C000B0F850203B78062101EBC3010A4408EBF4
:1059D0004201415A8905890D009118D0FA8812E0D8
:1059E000324639462046FDF771FD00900FE0062251
:1059F00002EBC1015A1808EB4201415A8905890D91
:105A0000009104D07A897969009B01F087FEF869DA
:105A100000990844F8617969009808447861B86988
:105A200018B139690098814204D939782046FDF7C8
:105A3000F1FC03E03946206801F0E6FB30062ED584
:105A400005EB850004EBC001206830F8252002EA50
:105A5000090242F4004220F82520C87C10310128B8
:105A60001ED0F0056CD42068B0F850300D780222BA
:105A700002EBC5021A4408EB4202805A8A69C0F35D
:105A80000900824255D9121A8A6154D04A690244E7
:105A90004A61CA691044C861206801F0B5FB53E04F
:105AA000C1F818A0087B524608B3700620D5487884
:105AB00010B1012812D03AE02068B0F8502010440C
:105AC0000A7800EB0210B0F80424C2F30902A0F82F
:105AD0000424B0F8042442F4004206E02068B0F840
